:100000000C9463000C948B000C948B000C948B006C
:100010000C948B000C948B000C948B000C948B0034
:100020000C948B000C948B000C948B000C948B0024
:100030000C948B000C948B000C948B000C948B0014
:100040000C94A90A0C948B000C94330B0C940D0B9C
:100050000C948B000C948B000C948B000C948B00F4
:100060000C948B000C948B000000000024002700EF
:100070002A0000000000250028002B0000000000DE
:1000800023002600290004040404040404040202DA
:100090000202020203030303030301020408102007
:1000A0004080010204081020010204081020000012
:1000B0000008000201000003040700000000000027
:1000C00000009C0A6B0B11241FBECFEFD8E0DEBFEF
:1000D000CDBF11E0A0E0B1E0E4EEF0E202C0059097
:1000E0000D92A833B107D9F722E0A8E3B1E001C02F
:1000F0001D92A731B207E1F710E0C2E6D0E004C0DC
:100100002197FE010E944F0DC136D107C9F70E9409
:10011000040B0C9465100C94000008958330B1F02A
:1001200060F08730E9F0883009F1843021F5E0E8AB
:10013000F0E080818F7D80830895813069F0823086
:1001400021F484B58F7D84BD08950895E0E8F0E042
:1001500080818F778083089584B58F7784BD0895DB
:10016000E0EBF0E080818F7780830895E0EBF0E0B2
:1001700080818F7D80830895CF93DF93282F30E097
:10018000F901E255FF4F8491F901E656FF4FD491F2
:10019000F901EA57FF4FC491CC23B1F081110EC091
:1001A000EC2FF0E0EE0FFF1FE458FF4FA591B49144
:1001B000EC91ED2331F490E080E008C00E948E00C5
:1001C000EFCF81E090E002C090E080E0DF91CF913E
:1001D00008951F93CF93DF93282F30E0F901E25564
:1001E000FF4F8491F901E656FF4F1491F901EA5748
:1001F000FF4FC491CC23A9F0D62F811116C0EC2F4C
:10020000F0E0EE0FFF1FEE58FF4FA591B4918FB7AE
:10021000F894D1110DC09C91E12FE095E923EC9366
:100220008FBFDF91CF911F9108950E948E00E7CF7D
:10023000EC91E12BEC93F4CFCF93DF9390E0FC01B2
:10024000E656FF4F24918A579F4FFC0184918823E3
:1002500019F190E0880F991FFC01E859FF4FA59113
:10026000B491FC01EE58FF4FC591D491662349F03B
:100270006230A9F08FB7F894EC91E22BEC938FBF2A
:100280000BC09FB7F8948C91E22FE0958E238C934E
:100290008881E823E8839FBFDF91CF9108959FB7BE
:1002A000F8943C91822F809583238C93E881E22BF4
:1002B000E8839FBFF1CF1F93CF93DF93182FEB01FC
:1002C00061E00E941C012097D9F0CF3FD10501F1D8
:1002D000E12FF0E0E255FF4FE491E33061F1E8F007
:1002E000E730E9F1E83009F442C0E43071F1C03898
:1002F000D1050CF444C061E0812F0E94E90004C0E4
:1003000060E0812F0E94E900DF91CF911F91089555
:1003100061E0812F0E94E900F7CFE13039F0E2304F
:1003200031F784B5806284BDC8BDEECF84B58068E6
:1003300084BDC7BDE9CFE0E8F0E0808180688083BC
:10034000D0938900C0938800DFCFE0E8F0E080819F
:1003500080628083D0938B00C0938A00D5CFE0EB7E
:10036000F0E0808180688083C093B300CDCFE0EB64
:10037000F0E0808180628083C093B400C5CF60E0EC
:10038000812F0E94E900C0CF8E3008F08E50877018
:10039000806480937C00EAE7F0E080818064808361
:1003A00080917A0086FDFCCF809178009091790051
:1003B0000895789484B5826084BD84B5816084BDDD
:1003C00085B5826085BD85B5816085BDEEE6F0E0CE
:1003D000808181608083E1E8F0E01082808182602A
:1003E0008083808181608083E0E8F0E080818160AB
:1003F0008083E1EBF0E0808184608083E0EBF0E0DB
:10040000808181608083EAE7F0E08081846080837E
:100410008081826080838081816080838081806828
:1004200080831092C10008953FB7F89480910F0225
:1004300090911002A0911102B091120226B5A89BD2
:1004400005C02F3F19F00196A11DB11D3FBFBA2F66
:10045000A92F982F8827BC01CD01620F711D811D26
:10046000911D660F771F881F991F660F771F881FC2
:10047000991F08958F929F92AF92BF92CF92DF9271
:10048000EF92FF926B017C010E9414024B015C0110
:100490001BC021E0C21AD108E108F10888EE880EDD
:1004A00083E0981EA11CB11CC114D104E104F10425
:1004B00059F00E941402681979098A099B09683E5B
:1004C00073408105910528F7C114D104E104F104BA
:1004D00059F7FF90EF90DF90CF90BF90AF909F9033
:1004E0008F9008952FB7F89460910B0270910C02D1
:1004F00080910D0290910E022FBF089508954F92A2
:100500005F926F927F92AF92BF92CF92DF92EF9203
:10051000FF920F931F93CF93DF93CDB7DEB72901DF
:100520003A019B01AC01241935094609570989890B
:100530009A89AB89BC89BC01CD016A197B098C09F8
:100540009D090E943F0DA80197012419350946090C
:1005500057090E94AD0CCA01B9016A0D7B1D8C1DA3
:100560009D1DDF91CF911F910F91FF90EF90DF9034
:10057000CF90BF90AF907F906F905F904F90089515
:100580000F931F93CF93DF93EC010E947202688751
:1005900079878A879B87E881F9810284F385E02D3A
:1005A000CE0109959923ACF40E9472020885198541
:1005B0002A853B85601B710B820B930B0C811D817F
:1005C0002E813F81601771078207930720F38FEF19
:1005D0009FEFDF91CF911F910F910895DB0114964A
:1005E0004D915C9115976D917C91DC01ED91FC91A1
:1005F0000280F381E02D09950895CF92DF92EF926A
:10060000FF920F931F93CF93DF938C01DB01D0E018
:10061000C0E07A0181E0E81AF108452BA1F0F80169
:1006200080819181FC01208131816D01FFEFCF1A22
:10063000DF0A6C91C801F9010995892B21F02196F7
:10064000A701D601E6CFCE01DF91CF911F910F9187
:10065000FF90EF90DF90CF900895019709F00895F3
:100660006F3F7F4FE1F7EDE6F1E01382128288EEF3
:1006700093E0A0E0B0E084839583A683B78388E10C
:1006800091E09183808385EC90E09587848784EC6A
:1006900090E09787868780EC90E0918B808B81EC4F
:1006A00090E0938B828B82EC90E0958B848B86EC30
:1006B00090E0978B868B118E128E138E148ECFCF77
:1006C000FC01938D848D981720F4891B990B019759
:1006D00008952FE330E0291B3109820F932F911DDC
:1006E0000895FC01918D828D981761F0A28DAE0F57
:1006F000BF2FB11D5D968C91928D9F5F9F73928FDE
:1007000090E008958FEF9FEF0895FC01918D828D09
:10071000981731F0828DE80FF11D858D90E00895D6
:100720008FEF9FEF0895FC01218D30E0205C3F4F5B
:10073000828DA901481B5109CA018F739927089519
:100740008DE691E00E94930321E0892B09F420E0DB
:10075000822F0895CF92DF92EF92FF921F93CF9353
:10076000DF93EC016A017B01122F60E079E08DE3F9
:1007700090E0A70196010E940E0D21503109410918
:1007800051095695479537952795E889F98982E06B
:100790008083C11481EED806E104F10421F0211513
:1007A00080E1380798F0E889F989108260E874E8F8
:1007B0008EE190E0A70196010E940E0D21503109B3
:1007C000410951095695479537952795EC85FD8543
:1007D0003083EE85FF852083188EEC89FD89108398
:1007E000EA89FB89808180618083EA89FB89808135
:1007F00088608083EA89FB89808180688083EA89B8
:10080000FB8980818F7D8083DF91CF911F91FF9045
:10081000EF90DF90CF900895FC01A48DA80FB92F21
:10082000B11DA35ABF4F2C91848D90E001968F7318
:100830009078848FA689B7892C93A089B1898C91EF
:10084000837080648C93938D848D981308950288AF
:10085000F389E02D80818F7D8083F8CF0F931F93E4
:10086000CF93DF93EC0181E0888F9B8D8C8D98175F
:10087000B1F0062F8B8D90E001968F739078182F32
:100880008C8D81131EC00FB607FCFACFE889F98959
:10089000808185FFF5CFCE010E940C04F1CFE8895D
:1008A000F989808185FFE5CF9FB7F894EE89FF89AC
:1008B0006083E889F98980818370806480839FBF29
:1008C00010C0EB8DEC0FFD2FF11DE35AFF4F00839D
:1008D0009FB7F8941B8FEA89FB89808180628083AF
:1008E0009FBF81E090E0DF91CF911F910F9108951C
:1008F000CF93DF93EC01888D811104C00DC00FB63A
:1009000007FE0DC0EA89FB89808185FDF8CFA889A3
:10091000B9898C9186FFF3CFDF91CF9108958081C3
:1009200085FFF0CFE889F989808185FFEBCFCE0183
:100930000E940C04E7CF80E090E0892B21F00E9418
:10094000A003811101C008950E940000FCCFFC01AA
:1009500060834183089560E0FC0180810E941C0156
:100960000895EF92FF920F931F93CF93DF93EC01C3
:100970007B018A0145E263E202960E94A704F982A4
:10098000E8821B830A83DF91CF911F910F91FF9023
:10099000EF900895CF93DF93EC0160E088810E948F
:1009A0001C0160E08A810E941C01DF91CF910895B3
:1009B000CF92DF92EF92FF920F931F93CF93DF932B
:1009C000EC016B017A01890145E263E206960E941F
:1009D000A704D982C882FB82EA8284E690E09D83E4
:1009E0008C831F830E83DF91CF911F910F91FF9016
:1009F000EF90DF90CF900895CF92DF92EF92FF9229
:100A00000F931F93CF93DF93EC010E9472020A8130
:100A10001B812C813D81601B710B820B930B0E811E
:100A20001F81288539850617170728073907B8F168
:100A30000E9472020A811B812C813D81601B710B17
:100A4000820B930B0E94B20B6B017C016E817F8144
:100A5000888599850E94B20B9B01AC01C701B60144
:100A60000E94C20D9B01AC0160E070E080E89FE352
:100A70000E94550D20E030E04FE753E40E94EF0B59
:100A8000C8810E94340E8C2F0E945B01DF91CF91B0
:100A90001F910F91FF90EF90DF90CF90089560E04D
:100AA00088810E94E900F2CFCF93DF93EC0161E0EF
:100AB00088810E94E9000E9472026A837B838C8392
:100AC0009D83DF91CF910895CF93DF93EC0161E097
:100AD00088810E941C0160E088810E94E900DF910A
:100AE000CF9108950F931F93CF93DF938C01D0E0A4
:100AF000C0E0C730D1057CF4FE01EE0FFF1FE00F10
:100B0000F11F62E080810E941C01F801EC0FFD1FC3
:100B100016862196EECFDF91CF911F910F91089508
:100B200026E040E855E260E070E08DE691E00E944A
:100B3000AA0361E08CE00E941C0161E08DE00E944C
:100B40001C0161E08CE00E94E90060E08DE00E9401
:100B5000E90060E080E10E941C0184E591E00E94D0
:100B600072058CE491E00E94CA048CE391E00E943B
:100B7000640588E391E00E94AB040895EF92FF9230
:100B80000F931F93CF93DF93EC018B017A0145E222
:100B900063E245960E94A704FE8AED8A30E020E0D9
:100BA0002730310584F4C901880F991FF801E80F37
:100BB000F91F408151818C0F9D1FFC01518340839F
:100BC0002F5F3F4FEDCFDF91CF911F910F91FF909E
:100BD000EF900895CF93DF93DB01EC01E881F98179
:100BE000309761F06D917C9111976115710531F02D
:100BF000CF010E945510DF91CF910895CD91DC91E6
:100C00001197209729F014962D913C91232B59F49C
:100C1000309779F0DC0114968D919C91892B61F0CD
:100C2000808190E0E8CF888190E09195819591094D
:100C3000E2CF90E080E0DFCF90E080E0DCCFFC010D
:100C400044815581FB01248135814217530711F0FE
:100C500080E008950E94EA05892B11F080E0089554
:100C600081E00895DC01ED91FC910280F381E02D9B
:100C700042E050E066E271E0099508950F931F93FA
:100C8000CF93DF93EC010E94EE028C01CE010E9413
:100C90003206800F911FDF91CF911F910F91089520
:100CA0000F931F93CF93DF93EC018B016F5F7F4F07
:100CB000888199810E948F0F009751F099838883D2
:100CC0001B830A8381E0DF91CF911F910F910895DB
:100CD00080E0F9CFCF93DF93EC0128813981232B7A
:100CE00029F02A813B812617370770F4CE010E9434
:100CF0005006882351F08C819D81892B49F4E8812D
:100D0000F981108281E001C081E0DF91CF910895E7
:100D100081E0FBCFEF92FF920F931F93CF93DF936E
:100D2000FC01C481D581C40FD51F6115710501F186
:100D3000452B41F481E0DF91CF911F910F91FF90FE
:100D4000EF9008957B018C01BE010E946A06882302
:100D500091F3F8012081318184819581B701820F5F
:100D6000931F0E945E10F801D583C48381E0E3CF16
:100D700080E0E1CFCF93DF9300D0CDB7DEB76983BA
:100D80001A8241E050E0BE016F5F7F4F0E948A06E9
:100D90000F900F90DF91CF910895CF93DF93EC01E7
:100DA00088819981009711F00E94060F198218829C
:100DB0001D821C821B821A82DF91CF910895CF93EE
:100DC000DF93EC010E94BA06882321F0CE01DF9167
:100DD000CF910895CE010E94CD06F8CFCF93DF9337
:100DE000EC01FB0144815581608171810E948A067A
:100DF000882321F0CE01DF91CF910895CE010E948A
:100E0000CD06F8CFEF92FF920F931F93CF93DF930E
:100E1000EC017B018A01BA010E946A06882379F0FD
:100E20001D830C83B701888199810E945E10CE01D9
:100E3000DF91CF911F910F91FF90EF900895CE0118
:100E40000E94CD06F4CFCF93DF93EC0161157105BD
:100E500071F0FB0101900020E9F73197AF01461BCB
:100E6000570B0E940207CE01DF91CF9108950E9497
:100E7000CD06F9CFCF93DF9300D0CDB7DEB7FC011D
:100E800011821082138212821582148269831A825F
:100E9000BE016F5F7F4F0E9423070F900F90DF917D
:100EA000CF910895CF93DF93EC01FB01861797074D
:100EB00049F0608171816115710541F0448155816E
:100EC0000E940207CE01DF91CF9108950E94CD06C6
:100ED000F9CFFC01118210821382128215821482D2
:100EE0000E9452070895CF93DF93EC01665F7F4F16
:100EF0000E946907CE01DF91CF910895FC01118214
:100F0000108213821282158214826115710551F0CC
:100F1000FB0101900020E9F73197AF01461B570B09
:100F20000E9402070895FF920F931F93CF93DF93C0
:100F3000EC018B01F42E68E271E00E947E07C8018B
:100F40000E94C00299237CF02F2D0F2C000C330B34
:100F50002817390741F0682FCE010E94BA06C80150
:100F60000E94C002EFCFCE01DF91CF911F910F9170
:100F7000FF900895AF92BF92CF92DF92EF92FF92CF
:100F80000F931F93CF93DF93EC015B017A0169010B
:100F90001A821B821C821D828C01065F1F4F68E231
:100FA00071E0C8010E947E07B982A882C601DD0CEB
:100FB000AA0BBB0B8E839F83A887B987B701C80193
:100FC0000E945207DF91CF911F910F91FF90EF90F8
:100FD000DF90CF90BF90AF900895FC018081918108
:100FE000009711F00E94060F0895EF92FF920F9361
:100FF0001F93CF93DF9300D000D000D0CDB7DEB7E2
:101000008C017B018DE691E00E949303892B99F47A
:1010100068E271E0C8010E947E07C80126960FB6FB
:10102000F894DEBF0FBECDBFDF91CF911F910F911E
:10103000FF90EF900895F70140816DE671E0CE01D9
:1010400001960E949307CE0101960E94ED07F701D9
:1010500041816DE671E0C8010E949307DECFEF92F7
:10106000FF920F931F93CF93DF9300D000D000D057
:10107000CDB7DEB78C017B01019799F0012B21F4EC
:10108000EF20E09409F44CC026960FB6F894DEBF2A
:101090000FBECDBFDF91CF911F910F91FF90EF90C9
:1010A00008956F3F7F4F51F745E263E28BE691E091
:1010B0000E94A70440916B0150916C0160E071E0C7
:1010C00084E591E00E94BE0520916B0130916C0196
:1010D0004FE050E06EE070E08CE491E00E94D804B4
:1010E00069E271E0CE0101960E947E0728E833E1B3
:1010F000AE014F5F5F4F6BE070E08CE391E00E94C8
:10110000BA07CE0101960E94ED0740916B01509104
:101110006C0160E170E088E391E00E94B104AECF21
:1011200086E491E00E94ED07AFCFFF920F931F93EB
:10113000CF93DF9300D000D000D0CDB7DEB78B01C6
:10114000FC01F1806081CE0101960E943A07B8014E
:10115000CE0101960E94EE066F2D0E94DF06BC01B3
:10116000C8010E945207CE0101960E94ED07B80106
:101170008DE691E00E943E0626960FB6F894DEBFFB
:101180000FBECDBFDF91CF911F910F91FF900895BA
:10119000CF92DF92EF92FF920F931F93CF93DF9343
:1011A000CDB7DEB768970FB6F894DEBF0FBECDBFE0
:1011B0008C01FC0180810E94C401895591406C0121
:1011C000F80182810E94C401875491407C01F8019A
:1011D000848195818C159D0514F1919581959109D6
:1011E000C816D90674F1F801848195818E159F0582
:1011F000D4F1919581959109E816F9060CF445C052
:1012000068960FB6F894DEBF0FBECDBFDF91CF91C9
:101210001F910F91FF90EF90DF90CF9008956BE2B8
:1012200071E0CE0143960E947E07BE016D5E7F4F46
:10123000C80106960E949508CE0143960E94ED07CC
:10124000D2CF6DE271E0CE010D960E947E07BE0105
:10125000635F7F4FC80106960E949508CE010D96E8
:101260000E94ED07C0CF6FE271E0CE0107960E94A9
:101270007E07BE01695F7F4FC80106960E949508F0
:10128000CE0107960E94ED07BBCF61E371E0CE016E
:1012900001960E947E07BE016F5F7F4FC8010696D0
:1012A0000E949508CE0101960E94ED07A9CF0F93E9
:1012B0001F93CF93DF93CDB7DEB762970FB6F89445
:1012C000DEBF0FBECDBF8C01CB01F80111821082B1
:1012D000138212821582148250E0BE016F5F7F4F2D
:1012E0000E94720BBE016F5F7F4FC8010E942307EF
:1012F00062960FB6F894DEBF0FBECDBFDF91CF91DF
:101300001F910F9108958F929F92AF92BF92CF92AB
:10131000DF92EF92FF920F931F93CF93DF93CDB79E
:10132000DEB762970FB6F894DEBF0FBECDBF4C019B
:10133000FC0180810E94C401BC01990F880B990BAC
:101340001F921F921F9224E62F93A12CB12C6501AE
:101350001DE0E12E12E0F12E00E010E02CE030E084
:1013600040E050E00E947F020F900F900F900F908E
:10137000F2E08F0E911C4AE0CE0107960E945709B9
:1013800063E371E0CE0101960E947E07BE01695FB2
:101390007F4FCE0101960E94EE06BC01CE010D9654
:1013A0000E946907BE01635F7F4FC4010E949508D8
:1013B000CE010D960E94ED07CE0101960E94ED0729
:1013C000CE0107960E94ED0762960FB6F894DEBF35
:1013D0000FBECDBFDF91CF911F910F91FF90EF9086
:1013E000DF90CF90BF90AF909F908F900895EF9235
:1013F000FF920F931F93CF93DF9300D000D000D0C4
:10140000CDB7DEB77C0110E000E00CC0F801EE0FB4
:10141000FF1FEE0DFF1D80810E94BC00019791F11E
:101420000F5F1F4F0730110594F5F801EE0FFF1FF6
:10143000EE0DFF1D80810E94BC00892B39F7F7015A
:10144000E00FF11F86858111E1CF4AE0B801CE019E
:1014500001960E945709BE016F5F7F4FC7014596F5
:101460000E949508CE0101960E94ED0781E0F701E8
:10147000E00FF11F86876AE070E080E090E00E9454
:101480003A02CECFF701E00FF11F1686C9CF26969C
:101490000FB6F894DEBF0FBECDBFDF91CF911F9185
:1014A0000F91FF90EF9008951F93CF93DF93CDB7E7
:1014B000DEB72C970FB6F894DEBF0FBECDBF6BE63C
:1014C00071E0CE0107960E94F50784E591E00E9445
:1014D000F7098CE491E00E94C8086CE371E0CE014A
:1014E00001960E947307BE01695F7F4FCE0101968E
:1014F0000E941F06182FCE0101960E94ED071111C0
:1015000016C08CE391E00E94FC0488E391E00E9405
:101510008309CE0107960E94ED072C960FB6F8942A
:10152000DEBF0FBECDBFDF91CF911F9108958CE339
:1015300091E00E945405E5CF6FEF7FEF81E090E0EE
:101540000E942D036FEF7FEF81E090E00E942F0853
:1015500008951F920F920FB60F9211240F931F93AD
:101560002F933F934F935F936F937F938F939F93AB
:10157000AF93BF9300910B0210910C0220910D02CA
:1015800030910E0290910A02B901A8014F5F5F4F9E
:101590006F4F7F4F83E0890F8D3740F086E8890FCA
:1015A000B901A8014E5F5F4F6F4F7F4F80930A02D2
:1015B00040930B0250930C0260930D0270930E0245
:1015C00080910F0290911002A0911102B09112022D
:1015D0000196A11DB11D80930F0290931002A0935C
:1015E0001102B0931202BF91AF919F918F917F91A1
:1015F0006F915F914F913F912F911F910F910F909C
:101600000FBE0F901F9018950E94D9010E9490055F
:101610000E94540A0E949B04FBCF1F920F920FB6A8
:101620000F9211242F933F934F935F936F937F9368
:101630008F939F93AF93BF93EF93FF938DE691E0CA
:101640000E940C04FF91EF91BF91AF919F918F91F8
:101650007F916F915F914F913F912F910F900FBEAE
:101660000F901F9018951F920F920FB60F92112492
:101670002F938F939F93AF93BF93EF93FF93E0913B
:101680007D01F0917E01808182FD14C0EDE6F1E0E4
:10169000A689B7892C91818D8F5F8F73928D891761
:1016A00071F0DF01E18DF0E0E359FE4F258F59968F
:1016B0008C9305C0E0918301F09184018081FF91BA
:1016C000EF91BF91AF919F918F912F910F900FBE8E
:1016D0000F901F9018956FEF7FEF90E080E00E94D1
:1016E0002F0808954532510520F4423010F00C9433
:1016F0007D0BFB011082CB010895BB274A3031F4EA
:10170000992322F4BDE2909581959F4F0C94890B0B
:10171000BB27FB015527AA27880F991FAA1FA417CB
:1017200010F0A41B83955051B9F7A05DAA3308F0BF
:10173000A95DA193009779F7B111B1931192CB01F3
:101740000C94A20BDC01FC01672F71917723E1F768
:10175000329704C07C916D9370836291AE17BF077E
:10176000C8F30895E89409C097FB3EF490958095DE
:10177000709561957F4F8F4F9F4F9923A9F0F92F57
:1017800096E9BB279395F695879577956795B795D5
:10179000F111F8CFFAF4BB0F11F460FF1BC06F5FBB
:1017A0007F4F8F4F9F4F16C0882311F096E911C0CD
:1017B000772321F09EE8872F762F05C0662371F0EE
:1017C00096E8862F70E060E02AF09A95660F771F02
:1017D000881FDAF7880F9695879597F908950E94E4
:1017E000020C0C94730C0E94650C38F00E946C0C77
:1017F00020F0952311F00C945C0C0C94620C1124D5
:101800000C94A70C0E94840C70F3959FC1F3950F64
:1018100050E0551F629FF001729FBB27F00DB11D74
:10182000639FAA27F00DB11DAA1F649F6627B00D04
:10183000A11D661F829F2227B00DA11D621F739FED
:10184000B00DA11D621F839FA00D611D221F749FFB
:101850003327A00D611D231F849F600D211D822F42
:10186000762F6A2F11249F5750409AF0F1F0882369
:101870004AF0EE0FFF1FBB1F661F771F881F915096
:101880005040A9F79E3F510580F00C945C0C0C94DD
:10189000A70C5F3FE4F3983ED4F386957795679560
:1018A000B795F795E7959F5FC1F7FE2B880F911DC0
:1018B0009695879597F9089597F99F6780E870E066
:1018C00060E008959FEF80EC089500240A941616B6
:1018D000170618060906089500240A94121613061E
:1018E000140605060895092E0394000C11F48823AC
:1018F00052F0BB0F40F4BF2B11F460FF04C06F5FC8
:101900007F4F8F4F9F4F089557FD9058440F551F9D
:1019100059F05F3F71F04795880F97FB991F61F071
:101920009F3F79F087950895121613061406551FE8
:10193000F2CF4695F1DF08C0161617061806991F54
:10194000F1CF86957105610508940895E894BB2749
:1019500066277727CB0197F90895052E97FB1EF48C
:1019600000940E94C40C57FD07D00E940E0D07FC86
:1019700003D04EF40C94C40C5095409530952195AD
:101980003F4F4F4F5F4F08959095809570956195AB
:101990007F4F8F4F9F4F08950E94300DA59F900D50
:1019A000B49F900DA49F800D911D112408952F9236
:1019B0003F924F925F926F927F928F929F92AF92DF
:1019C000BF92CF92DF92EF92FF920F931F93CF932C
:1019D000DF93CDB7DEB7CA1BDB0B0FB6F894DEBFC3
:1019E0000FBECDBF09942A88398848885F846E84E9
:1019F0007D848C849B84AA84B984C884DF80EE8033
:101A0000FD800C811B81AA81B981CE0FD11D0FB63B
:101A1000F894DEBF0FBECDBFED010895A1E21A2EEE
:101A2000AA1BBB1BFD010DC0AA1FBB1FEE1FFF1F82
:101A3000A217B307E407F50720F0A21BB30BE40BD2
:101A4000F50B661F771F881F991F1A9469F7609519
:101A50007095809590959B01AC01BD01CF010895D3
:101A6000A29FB001B39FC001A39F700D811D1124DF
:101A7000911DB29F700D811D1124911D0895DB01F0
:101A80008F939F930E94CC0CBF91AF91A29F800D2A
:101A9000911DA39F900DB29F900D11240895EE0FFC
:101AA000FF1F0590F491E02D09945058BB27AA27F9
:101AB0000E946D0D0C94730C0E94650C38F00E940E
:101AC0006C0C20F039F49F3F19F426F40C94620C4E
:101AD0000EF4E095E7FB0C945C0CE92F0E94840C5B
:101AE00058F3BA17620773078407950720F079F453
:101AF000A6F50C94A60C0EF4E0950B2EBA2FA02D93
:101B00000B01B90190010C01CA01A0011124FF27AA
:101B1000591B99F0593F50F4503E68F11A16F040A5
:101B2000A22F232F342F4427585FF3CF46953795A4
:101B30002795A795F0405395C9F77EF41F16BA0B69
:101B4000620B730B840BBAF09150A1F0FF0FBB1F17
:101B5000661F771F881FC2F70EC0BA0F621F731F60
:101B6000841F48F4879577956795B795F7959E3FBD
:101B700008F0B0CF9395880F08F09927EE0F97954E
:101B8000879508950E94D60D0C94730C0E946C0CDE
:101B900058F00E94650C40F029F45F3F29F00C9446
:101BA0005C0C51110C94A70C0C94620C0E94840CD8
:101BB00068F39923B1F3552391F3951B550BBB277C
:101BC000AA2762177307840738F09F5F5F4F220FC1
:101BD000331F441FAA1FA9F335D00E2E3AF0E0E8B8
:101BE00032D091505040E695001CCAF72BD0FE2F02
:101BF00029D0660F771F881FBB1F26173707480796
:101C0000AB07B0E809F0BB0B802DBF01FF2793584D
:101C10005F4F3AF09E3F510578F00C945C0C0C94A9
:101C2000A70C5F3FE4F3983ED4F3869577956795CC
:101C3000B795F7959F5FC9F7880F911D9695879582
:101C400097F90895E1E0660F771F881FBB1F6217A1
:101C500073078407BA0720F0621B730B840BBA0B5F
:101C6000EE1F88F7E09508950E943B0E6894B1112D
:101C70000C94A70C08950E948C0C88F09F5798F044
:101C8000B92F9927B751B0F0E1F0660F771F881F81
:101C9000991F1AF0BA95C9F714C0B13091F00E949B
:101CA000A60CB1E008950C94A60C672F782F882716
:101CB000B85F39F0B93FCCF3869577956795B395C2
:101CC000D9F73EF490958095709561957F4F8F4F31
:101CD0009F4F08950F931F93CF93DF938230910509
:101CE00010F482E090E0E0911502F091160230E0ED
:101CF00020E0B0E0A0E0309799F42115310509F417
:101D00004AC0281B390B24303105D8F58A819B81C4
:101D10006115710589F1FB0193838283FE0111C076
:101D2000408151810281138148175907E0F048171B
:101D3000590799F4109761F012960C931297139625
:101D40001C933296CF01DF91CF911F910F9108958F
:101D50000093150210931602F4CF2115310551F0AE
:101D60004217530738F0A901DB019A01BD01DF01D9
:101D7000F801C1CFEF01F9CF9093160280931502BD
:101D8000CDCFFE01E20FF31F8193919322503109D1
:101D900039832883D7CF2091130230911402232B4B
:101DA00041F42091100130911101309314022093DD
:101DB000130220910E0130910F012115310541F4DC
:101DC0002DB73EB74091120150911301241B350BE2
:101DD000E0911302F0911402E217F307A0F42E1B16
:101DE0003F0B2817390778F0AC014E5F5F4F24177F
:101DF000350748F04E0F5F1F5093140240931302B3
:101E0000819391939FCFF0E0E0E09CCFCF93DF935D
:101E10000097E9F0FC01329713821282A09115021B
:101E2000B0911602ED0130E020E01097A1F420817E
:101E30003181820F931F20911302309114022817D1
:101E4000390709F061C0F0931402E0931302DF91A7
:101E5000CF910895EA01CE17DF07E8F54A815B814B
:101E60009E0141155105B1F7E901FB83EA834991D0
:101E70005991C40FD51FEC17FD0761F48081918142
:101E80000296840F951FE90199838883828193814B
:101E90009B838A83F0E0E0E012968D919C911397EA
:101EA0000097B9F52D913C911197CD010296820FC3
:101EB000931F20911302309114022817390739F625
:101EC000309751F51092160210921502B093140239
:101ED000A0931302BCCFD383C28340815181840F6E
:101EE000951FC817D90761F44E5F5F4F88819981AC
:101EF000480F591F518340838A819B81938382833A
:101F00002115310509F0B0CFF0931602E0931502C8
:101F10009ECFFD01DC01C0CF13821282D7CFB0E08B
:101F2000A0E0E5E9FFE00C94D90C8C01009751F496
:101F3000CB010E946A0E8C01C801CDB7DEB7E0E18B
:101F40000C94F50CFC01E60FF71F9C01225031099F
:101F5000E217F30708F49DC0D901CD91DC911197E8
:101F6000C617D70798F0C530D10530F3CE010497D6
:101F70008617970708F3C61BD70B2297C193D193F7
:101F80006D937C93CF010E94060FD6CF5B01AC1AF4
:101F9000BD0A4C018C0E9D1EA0911502B091160237
:101FA000512C412CF12CE12C109731F5809113022A
:101FB000909114028815990509F05CC046165706E1
:101FC00008F058C080910E0190910F01009741F4E4
:101FD0008DB79EB74091120150911301841B950B50
:101FE000E817F90708F055C0F0931402E0931302C4
:101FF000F90171836083A0CF8D919C911197129606
:102000006C90129713967C901397A815B90559F503
:102010006C0142E0C40ED11CCA14DB0420F1AC01F7
:102020004A195B09DA011296159780F06282738271
:1020300051834083D9016D937C93E114F10471F0D5
:10204000D7011396FC93EE93129776CF22968C0FBE
:102050009D1FF90191838083F301EFCFF093160266
:10206000E093150269CF4816590608F42C017D014A
:10207000D3019ACFCB010E946A0E7C01009749F0F0
:10208000AE01B8010E944C10C8010E94060F8701E2
:1020900053CF10E000E050CFFB01DC0102C0019003
:1020A0000D9241505040D8F70895FB01DC018D910D
:1020B000019080190110D9F3990B0895FB01DC01FF
:1020C00001900D920020E1F7089510E0C2E6D0E003
:1020D00004C0FE010E944F0D2196C336D107C9F7F7
:0420E000F894FFCFA2
:1020E40002000300040005000600070008000000C9
:1020F40017028000000000002E04FD026003780433
:102104009303710385030D0A00540052004C0055DB
:082114000044004C533A0000A6
:00000001FF
