:100000000C9463000C948B000C948B000C948B006C
:100010000C948B000C948B000C948B000C948B0034
:100020000C948B000C948B000C948B000C948B0024
:100030000C948B000C948B000C948B000C948B0014
:100040000C94CF0A0C948B000C94590B0C94330B2A
:100050000C948B000C948B000C948B000C948B00F4
:100060000C948B000C948B000000000024002700EF
:100070002A0000000000250028002B0000000000DE
:1000800023002600290004040404040404040202DA
:100090000202020203030303030301020408102007
:1000A0004080010204081020010204081020000012
:1000B0000008000201000003040700000000000027
:1000C0000000C20A910B11241FBECFEFD8E0DEBFA3
:1000D000CDBF11E0A0E0B1E0E0E3F1E202C00590A5
:1000E0000D92A833B107D9F722E0A8E3B1E001C02F
:1000F0001D92AB31B207E1F710E0C2E6D0E004C0D8
:100100002197FE010E94750DC136D107C9F70E94E3
:100110002A0B0C948B100C94000008958330B1F0DE
:1001200060F08730E9F0883009F1843021F5E0E8AB
:10013000F0E080818F7D80830895813069F0823086
:1001400021F484B58F7D84BD08950895E0E8F0E042
:1001500080818F778083089584B58F7784BD0895DB
:10016000E0EBF0E080818F7780830895E0EBF0E0B2
:1001700080818F7D80830895CF93DF93282F30E097
:10018000F901E255FF4F8491F901E656FF4FD491F2
:10019000F901EA57FF4FC491CC23B1F081110EC091
:1001A000EC2FF0E0EE0FFF1FE458FF4FA591B49144
:1001B000EC91ED2331F490E080E008C00E948E00C5
:1001C000EFCF81E090E002C090E080E0DF91CF913E
:1001D00008951F93CF93DF93282F30E0F901E25564
:1001E000FF4F8491F901E656FF4F1491F901EA5748
:1001F000FF4FC491CC23A9F0D62F811116C0EC2F4C
:10020000F0E0EE0FFF1FEE58FF4FA591B4918FB7AE
:10021000F894D1110DC09C91E12FE095E923EC9366
:100220008FBFDF91CF911F9108950E948E00E7CF7D
:10023000EC91E12BEC93F4CFCF93DF9390E0FC01B2
:10024000E656FF4F24918A579F4FFC0184918823E3
:1002500019F190E0880F991FFC01E859FF4FA59113
:10026000B491FC01EE58FF4FC591D491662349F03B
:100270006230A9F08FB7F894EC91E22BEC938FBF2A
:100280000BC09FB7F8948C91E22FE0958E238C934E
:100290008881E823E8839FBFDF91CF9108959FB7BE
:1002A000F8943C91822F809583238C93E881E22BF4
:1002B000E8839FBFF1CF1F93CF93DF93182FEB01FC
:1002C00061E00E941C012097D9F0CF3FD10501F1D8
:1002D000E12FF0E0E255FF4FE491E33061F1E8F007
:1002E000E730E9F1E83009F442C0E43071F1C03898
:1002F000D1050CF444C061E0812F0E94E90004C0E4
:1003000060E0812F0E94E900DF91CF911F91089555
:1003100061E0812F0E94E900F7CFE13039F0E2304F
:1003200031F784B5806284BDC8BDEECF84B58068E6
:1003300084BDC7BDE9CFE0E8F0E0808180688083BC
:10034000D0938900C0938800DFCFE0E8F0E080819F
:1003500080628083D0938B00C0938A00D5CFE0EB7E
:10036000F0E0808180688083C093B300CDCFE0EB64
:10037000F0E0808180628083C093B400C5CF60E0EC
:10038000812F0E94E900C0CF8E3008F08E50877018
:10039000806480937C00EAE7F0E080818064808361
:1003A00080917A0086FDFCCF809178009091790051
:1003B0000895789484B5826084BD84B5816084BDDD
:1003C00085B5826085BD85B5816085BDEEE6F0E0CE
:1003D000808181608083E1E8F0E01082808182602A
:1003E0008083808181608083E0E8F0E080818160AB
:1003F0008083E1EBF0E0808184608083E0EBF0E0DB
:10040000808181608083EAE7F0E08081846080837E
:100410008081826080838081816080838081806828
:1004200080831092C10008953FB7F8948091130221
:1004300090911402A0911502B091160226B5A89BC6
:1004400005C02F3F19F00196A11DB11D3FBFBA2F66
:10045000A92F982F8827BC01CD01620F711D811D26
:10046000911D660F771F881F991F660F771F881FC2
:10047000991F08958F929F92AF92BF92CF92DF9271
:10048000EF92FF926B017C010E9414024B015C0110
:100490001BC021E0C21AD108E108F10888EE880EDD
:1004A00083E0981EA11CB11CC114D104E104F10425
:1004B00059F00E941402681979098A099B09683E5B
:1004C00073408105910528F7C114D104E104F104BA
:1004D00059F7FF90EF90DF90CF90BF90AF909F9033
:1004E0008F9008952FB7F89460910F0270911002C9
:1004F00080911102909112022FBF089508954F929A
:100500005F926F927F92AF92BF92CF92DF92EF9203
:10051000FF920F931F93CF93DF93CDB7DEB72901DF
:100520003A019B01AC01241935094609570989890B
:100530009A89AB89BC89BC01CD016A197B098C09F8
:100540009D090E94650DA8019701241935094609E6
:1005500057090E94D30CCA01B9016A0D7B1D8C1D7D
:100560009D1DDF91CF911F910F91FF90EF90DF9034
:10057000CF90BF90AF907F906F905F904F90089515
:100580000F931F93CF93DF93EC010E947202688751
:1005900079878A879B87E881F9810284F385E02D3A
:1005A000CE0109959923ACF40E9472020885198541
:1005B0002A853B85601B710B820B930B0C811D817F
:1005C0002E813F81601771078207930720F38FEF19
:1005D0009FEFDF91CF911F910F910895DB0114964A
:1005E0004D915C9115976D917C91DC01ED91FC91A1
:1005F0000280F381E02D09950895CF92DF92EF926A
:10060000FF920F931F93CF93DF938C01DB01D0E018
:10061000C0E07A0181E0E81AF108452BA1F0F80169
:1006200080819181FC01208131816D01FFEFCF1A22
:10063000DF0A6C91C801F9010995892B21F02196F7
:10064000A701D601E6CFCE01DF91CF911F910F9187
:10065000FF90EF90DF90CF900895019709F00895F3
:100660006F3F7F4FE1F7E1E7F1E01382128288EEFE
:1006700093E0A0E0B0E084839583A683B78388E10C
:1006800091E09183808385EC90E09587848784EC6A
:1006900090E09787868780EC90E0918B808B81EC4F
:1006A00090E0938B828B82EC90E0958B848B86EC30
:1006B00090E0978B868B118E128E138E148ECFCF77
:1006C000FC01938D848D981720F4891B990B019759
:1006D00008952FE330E0291B3109820F932F911DDC
:1006E0000895FC01918D828D981761F0A28DAE0F57
:1006F000BF2FB11D5D968C91928D9F5F9F73928FDE
:1007000090E008958FEF9FEF0895FC01918D828D09
:10071000981731F0828DE80FF11D858D90E00895D6
:100720008FEF9FEF0895FC01218D30E0205C3F4F5B
:10073000828DA901481B5109CA018F739927089519
:1007400081E791E00E94930321E0892B09F420E0E6
:10075000822F0895CF92DF92EF92FF921F93CF9353
:10076000DF93EC016A017B01122F60E079E08DE3F9
:1007700090E0A70196010E94340D215031094109F2
:1007800051095695479537952795E889F98982E06B
:100790008083C11481EED806E104F10421F0211513
:1007A00080E1380798F0E889F989108260E874E8F8
:1007B0008EE190E0A70196010E94340D215031098D
:1007C000410951095695479537952795EC85FD8543
:1007D0003083EE85FF852083188EEC89FD89108398
:1007E000EA89FB89808180618083EA89FB89808135
:1007F00088608083EA89FB89808180688083EA89B8
:10080000FB8980818F7D8083DF91CF911F91FF9045
:10081000EF90DF90CF900895FC01A48DA80FB92F21
:10082000B11DA35ABF4F2C91848D90E001968F7318
:100830009078848FA689B7892C93A089B1898C91EF
:10084000837080648C93938D848D981308950288AF
:10085000F389E02D80818F7D8083F8CF0F931F93E4
:10086000CF93DF93EC0181E0888F9B8D8C8D98175F
:10087000B1F0062F8B8D90E001968F739078182F32
:100880008C8D81131EC00FB607FCFACFE889F98959
:10089000808185FFF5CFCE010E940C04F1CFE8895D
:1008A000F989808185FFE5CF9FB7F894EE89FF89AC
:1008B0006083E889F98980818370806480839FBF29
:1008C00010C0EB8DEC0FFD2FF11DE35AFF4F00839D
:1008D0009FB7F8941B8FEA89FB89808180628083AF
:1008E0009FBF81E090E0DF91CF911F910F9108951C
:1008F000CF93DF93EC01888D811104C00DC00FB63A
:1009000007FE0DC0EA89FB89808185FDF8CFA889A3
:10091000B9898C9186FFF3CFDF91CF9108958081C3
:1009200085FFF0CFE889F989808185FFEBCFCE0183
:100930000E940C04E7CF80E090E0892B21F00E9418
:10094000A003811101C008950E940000FCCFFC01AA
:1009500060834183089560E0FC0180810E941C0156
:100960000895EF92FF920F931F93CF93DF93EC01C3
:100970007B018A0145E263E206960E94A704F982A0
:10098000E88283E090E09B838A8381E490E09D830A
:100990008C831F830E83DF91CF911F910F91FF9066
:1009A000EF900895CF93DF93EC0160E088810E947F
:1009B0001C0160E08A810E941C01DF91CF910895A3
:1009C000CF92DF92EF92FF920F931F93CF93DF931B
:1009D000EC016B017A01890145E263E206960E940F
:1009E000A704D982C882FB82EA8284E690E09D83D4
:1009F0008C831F830E83DF91CF911F910F91FF9006
:100A0000EF90DF90CF900895CF92DF92EF92FF9218
:100A10000F931F93CF93DF93EC010E9472020A8120
:100A20001B812C813D81601B710B820B930B0E810E
:100A30001F81288539850617170728073907B8F158
:100A40000E9472020A811B812C813D81601B710B07
:100A5000820B930B0E94D80B6B017C016E817F810E
:100A6000888599850E94D80B9B01AC01C701B6010E
:100A70000E94E80D9B01AC0160E070E080E89FE31C
:100A80000E947B0D20E030E04FE753E40E94150CFC
:100A9000C8810E945A0E8C2F0E945B01DF91CF917A
:100AA0001F910F91FF90EF90DF90CF90089560E03D
:100AB00088810E94E900F2CFCF93DF93EC0161E0DF
:100AC00088810E94E9000E9472026A837B838C8382
:100AD0009D83DF91CF910895CF93DF93EC0161E087
:100AE00088810E941C0160E088810E94E900DF91FA
:100AF000CF9108950F931F93CF93DF938C01D0E094
:100B0000C0E0C730D1057CF4FE01EE0FFF1FE00FFF
:100B1000F11F62E080810E941C01F801EC0FFD1FB3
:100B200016862196EECFDF91CF911F910F910895F8
:100B300026E040E855E260E070E081E791E00E9445
:100B4000AA0361E08CE00E941C0161E08DE00E943C
:100B50001C0161E08CE00E94E90060E08DE00E94F1
:100B6000E90060E080E10E941C0188E591E00E94BC
:100B70007A0580E591E00E94D20480E491E00E9431
:100B80006C0588E391E00E94AB040895EF92FF9218
:100B90000F931F93CF93DF93EC018B017A0145E212
:100BA00063E245960E94A704FE8AED8A30E020E0C9
:100BB0002730310584F4C901880F991FF801E80F27
:100BC000F91F408151818C0F9D1FFC01518340838F
:100BD0002F5F3F4FEDCFDF91CF911F910F91FF908E
:100BE000EF900895CF93DF93DB01EC01E881F98169
:100BF000309761F06D917C9111976115710531F01D
:100C0000CF010E947B10DF91CF910895CD91DC91AF
:100C10001197209729F014962D913C91232B59F48C
:100C2000309779F0DC0114968D919C91892B61F0BD
:100C3000808190E0E8CF888190E09195819591093D
:100C4000E2CF90E080E0DFCF90E080E0DCCFFC01FD
:100C500044815581FB01248135814217530711F0EE
:100C600080E008950E94F205892B11F080E008953C
:100C700081E00895DC01ED91FC910280F381E02D8B
:100C800042E050E066E271E0099508950F931F93EA
:100C9000CF93DF93EC010E94EE028C01CE010E9403
:100CA0003A06800F911FDF91CF911F910F91089508
:100CB0000F931F93CF93DF93EC018B016F5F7F4FF7
:100CC000888199810E94B50F009751F0998388839C
:100CD0001B830A8381E0DF91CF911F910F910895CB
:100CE00080E0F9CFCF93DF93EC0128813981232B6A
:100CF00029F02A813B812617370770F4CE010E9424
:100D00005806882351F08C819D81892B49F4E88114
:100D1000F981108281E001C081E0DF91CF910895D7
:100D200081E0FBCFEF92FF920F931F93CF93DF935E
:100D3000FC01C481D581C40FD51F6115710501F176
:100D4000452B41F481E0DF91CF911F910F91FF90EE
:100D5000EF9008957B018C01BE010E9472068823EA
:100D600091F3F8012081318184819581B701820F4F
:100D7000931F0E948410F801D583C48381E0E3CFE0
:100D800080E0E1CFCF93DF9300D0CDB7DEB76983AA
:100D90001A8241E050E0BE016F5F7F4F0E949206D1
:100DA0000F900F90DF91CF910895CF93DF93EC01D7
:100DB00088819981009711F00E942C0F1982188266
:100DC0001D821C821B821A82DF91CF910895CF93DE
:100DD000DF93EC010E94C206882321F0CE01DF914F
:100DE000CF910895CE010E94D506F8CFCF93DF931F
:100DF000EC01FB0144815581608171810E94920662
:100E0000882321F0CE01DF91CF910895CE010E9479
:100E1000D506F8CFEF92FF920F931F93CF93DF93F6
:100E2000EC017B018A01BA010E947206882379F0E5
:100E30001D830C83B701888199810E948410CE01A3
:100E4000DF91CF911F910F91FF90EF900895CE0108
:100E50000E94D506F4CFCF93DF93EC0161157105A5
:100E600071F0FB0101900020E9F73197AF01461BBB
:100E7000570B0E940A07CE01DF91CF9108950E947F
:100E8000D506F9CFCF93DF9300D0CDB7DEB7FC0105
:100E900011821082138212821582148269831A824F
:100EA000BE016F5F7F4F0E942B070F900F90DF9165
:100EB000CF910895CF93DF93EC01FB01861797073D
:100EC00049F0608171816115710541F0448155815E
:100ED0000E940A07CE01DF91CF9108950E94D506A6
:100EE000F9CFFC01118210821382128215821482C2
:100EF0000E945A070895CF93DF93EC01665F7F4FFE
:100F00000E947107CE01DF91CF910895FC011182FB
:100F1000108213821282158214826115710551F0BC
:100F2000FB0101900020E9F73197AF01461B570BF9
:100F30000E940A070895FF920F931F93CF93DF93A8
:100F4000EC018B01F42E68E271E00E948607C80173
:100F50000E94C00299237CF02F2D0F2C000C330B24
:100F60002817390741F0682FCE010E94C206C80138
:100F70000E94C002EFCFCE01DF91CF911F910F9160
:100F8000FF900895AF92BF92CF92DF92EF92FF92BF
:100F90000F931F93CF93DF93EC015B017A016901FB
:100FA0001A821B821C821D828C01065F1F4F68E221
:100FB00071E0C8010E948607B982A882C601DD0CD3
:100FC000AA0BBB0B8E839F83A887B987B701C80183
:100FD0000E945A07DF91CF911F910F91FF90EF90E0
:100FE000DF90CF90BF90AF900895FC0180819181F8
:100FF000009711F00E942C0F0895EF92FF920F932B
:101000001F93CF93DF9300D000D000D0CDB7DEB7D1
:101010008C017B0181E791E00E949303892B99F475
:1010200068E271E0C8010E948607C80126960FB6E3
:10103000F894DEBF0FBECDBFDF91CF911F910F910E
:10104000FF90EF900895F701408161E771E0CE01D4
:1010500001960E949B07CE0101960E94F507F701B9
:10106000418161E771E0C8010E949B07DECFEF92EA
:10107000FF920F931F93CF93DF9300D000D000D047
:10108000CDB7DEB78C017B01019799F0012B21F4DC
:10109000EF20E09409F44CC026960FB6F894DEBF1A
:1010A0000FBECDBFDF91CF911F910F91FF90EF90B9
:1010B00008956F3F7F4F51F745E263E28FE691E07D
:1010C0000E94A70440916F015091700160E071E0AF
:1010D00088E591E00E94C60520916F013091700172
:1010E0004FE050E06EE070E080E591E00E94E004A7
:1010F00069E271E0CE0101960E94860728E833E19B
:10110000AE014F5F5F4F6BE070E080E491E00E94C2
:10111000C207CE0101960E94F50740916F015091E0
:10112000700160E170E088E391E00E94B104AECF0D
:101130008AE491E00E94F507AFCFFF920F931F93CF
:10114000CF93DF9300D000D000D0CDB7DEB78B01B6
:10115000FC01F1806081CE0101960E944207B80136
:10116000CE0101960E94F6066F2D0E94E706BC0193
:10117000C8010E945A07CE0101960E94F507B801E6
:1011800081E791E00E94460626960FB6F894DEBFEE
:101190000FBECDBFDF91CF911F910F91FF900895AA
:1011A0008F929F92AF92BF92CF92DF92EF92FF9277
:1011B0000F931F93CF93DF93CDB7DEB762970FB630
:1011C000F894DEBF0FBECDBF4C01FC0180810E94B0
:1011D000C401BC01990F880B990B1F921F921F929B
:1011E00024E62F93A12CB12C650118EEE12E13E01B
:1011F000F12E00E010E02CE030E040E050E00E94F2
:101200007F020F900F900F900F90F40182819381D5
:10121000681779070CF1861797072CF4848195815C
:10122000681779075CF1F401848195818617970727
:10123000BCF162960FB6F894DEBF0FBECDBFDF9152
:10124000CF911F910F91FF90EF90DF90CF90BF90C3
:10125000AF909F908F9008956BE271E0CE010D9654
:101260000E948607BE01635F7F4FC40106960E94FD
:101270009D08CE010D960E94F507DBCF6DE271E06F
:10128000CE0107960E948607BE01695F7F4FC401A9
:1012900006960E949D08CE0107960E94F507C9CFC9
:1012A0006FE271E0CE0101960E948607BE016F5F7A
:1012B0007F4FC40106960E949D08CE0101960E94B0
:1012C000F507B7CFCF92DF92EF92FF920F931F9364
:1012D000CF93DF93CDB7DEB768970FB6F894DEBF34
:1012E0000FBECDBF8C01FC0180810E94C4018955D5
:1012F00091406C01F80182810E94C40187549140A1
:101300007C01F801848195818C159D0514F19195DE
:1013100081959109C816D90674F1F80184819581E7
:101320008E159F05D4F1919581959109E816F906DE
:101330000CF445C068960FB6F894DEBF0FBECDBF63
:10134000DF91CF911F910F91FF90EF90DF90CF90A1
:10135000089561E371E0CE0143960E948607BE01C5
:101360006D5E7F4FC80106960E949D08CE01439690
:101370000E94F507D2CF6BE271E0CE010D960E947C
:101380008607BE01635F7F4FC80106960E949D08D5
:10139000CE010D960E94F507C0CF63E371E0CE0148
:1013A00007960E948607BE01695F7F4FC8010696B7
:1013B0000E949D08CE0107960E94F507BBCF65E30A
:1013C00071E0CE0101960E948607BE016F5F7F4FDC
:1013D000C80106960E949D08CE0101960E94F5075D
:1013E000A9CF0F931F93CF93DF93CDB7DEB762974B
:1013F0000FB6F894DEBF0FBECDBF8C01CB01F80154
:1014000011821082138212821582148250E0BE0172
:101410006F5F7F4F0E94980BBE016F5F7F4FC801C7
:101420000E942B0762960FB6F894DEBF0FBECDBFA9
:10143000DF91CF911F910F910895EF92FF920F933B
:101440001F93CF93DF9300D000D000D0CDB7DEB78D
:101450007C0110E000E00CC0F801EE0FFF1FEE0D64
:10146000FF1D80810E94BC00019791F10F5F1F4F0B
:101470000730110594F5F801EE0FFF1FEE0DFF1D6B
:1014800080810E94BC00892B39F7F701E00FF11F22
:1014900086858111E1CF4AE0B801CE0101960E9414
:1014A000F109BE016F5F7F4FC70145960E949D08FD
:1014B000CE0101960E94F50781E0F701E00FF11FD0
:1014C00086876AE070E080E090E00E943A02CECF2A
:1014D000F701E00FF11F1686C9CF26960FB6F894D4
:1014E000DEBF0FBECDBFDF91CF911F910F91FF9057
:1014F000EF9008951F93CF93DF93CDB7DEB72C976E
:101500000FB6F894DEBF0FBECDBF6FE671E0CE011F
:1015100007960E94FD0788E591E00E941D0A80E57C
:1015200091E00E94620960E471E0CE0101960E94A0
:101530007B07BE01695F7F4FCE0101960E9427069F
:10154000182FCE0101960E94F507111116C080E4F4
:1015500091E00E94040588E391E00E94D008CE014A
:1015600007960E94F5072C960FB6F894DEBF0FBEC3
:10157000CDBFDF91CF911F91089580E491E00E944B
:101580005C05E5CF6FEF7FEF81E090E00E942D03D7
:101590006FEF7FEF81E090E00E94370808951F927F
:1015A0000F920FB60F9211240F931F932F933F9317
:1015B0004F935F936F937F938F939F93AF93BF935B
:1015C00000910F021091100220911102309112022D
:1015D00090910E02B901A8014F5F5F4F6F4F7F4F8F
:1015E00083E0890F8D3740F086E8890FB901A801A3
:1015F0004E5F5F4F6F4F7F4F80930E0240930F02FD
:1016000050931002609311027093120280911302A2
:1016100090911402A0911502B09116020196A11D9D
:10162000B11D8093130290931402A0931502B093FE
:101630001602BF91AF919F918F917F916F915F91B2
:101640004F913F912F911F910F910F900FBE0F90CF
:101650001F9018950E94D9010E9498050E947A0A4D
:101660000E949B04FBCF1F920F920FB60F92112482
:101670002F933F934F935F936F937F938F939F939A
:10168000AF93BF93EF93FF9381E791E00E940C0427
:10169000FF91EF91BF91AF919F918F917F916F914A
:1016A0005F914F913F912F910F900FBE0F901F9020
:1016B00018951F920F920FB60F9211242F938F93AC
:1016C0009F93AF93BF93EF93FF93E0918101F091CC
:1016D0008201808182FD14C0E1E7F1E0A689B7892B
:1016E0002C91818D8F5F8F73928D891771F0DF013F
:1016F000E18DF0E0EF58FE4F258F59968C9305C091
:10170000E0918701F09188018081FF91EF91BF9175
:10171000AF919F918F912F910F900FBE0F901F90BF
:1017200018956FEF7FEF90E080E00E9437080895F2
:101730004532510520F4423010F00C94A30BFB010C
:101740001082CB010895BB274A3031F4992322F44B
:10175000BDE2909581959F4F0C94AF0BBB27FB0189
:101760005527AA27880F991FAA1FA41710F0A41B9A
:1017700083955051B9F7A05DAA3308F0A95DA193F4
:10178000009779F7B111B1931192CB010C94C80B6A
:10179000DC01FC01672F71917723E1F7329704C0D8
:1017A0007C916D9370836291AE17BF07C8F3089563
:1017B000E89409C097FB3EF49095809570956195EB
:1017C0007F4F8F4F9F4F9923A9F0F92F96E9BB27A1
:1017D0009395F695879577956795B795F111F8CF1D
:1017E000FAF4BB0F11F460FF1BC06F5F7F4F8F4F88
:1017F0009F4F16C0882311F096E911C0772321F07E
:101800009EE8872F762F05C0662371F096E8862F15
:1018100070E060E02AF09A95660F771F881FDAF76C
:10182000880F9695879597F908950E94280C0C9437
:10183000990C0E948B0C38F00E94920C20F095239A
:1018400011F00C94820C0C94880C11240C94CD0C87
:101850000E94AA0C70F3959FC1F3950F50E0551F9D
:10186000629FF001729FBB27F00DB11D639FAA27F5
:10187000F00DB11DAA1F649F6627B00DA11D661F44
:10188000829F2227B00DA11D621F739FB00DA11D65
:10189000621F839FA00D611D221F749F3327A00D1F
:1018A000611D231F849F600D211D822F762F6A2FBB
:1018B00011249F5750409AF0F1F088234AF0EE0F20
:1018C000FF1FBB1F661F771F881F91505040A9F74D
:1018D0009E3F510580F00C94820C0C94CD0C5F3F20
:1018E000E4F3983ED4F3869577956795B795F79589
:1018F000E7959F5FC1F7FE2B880F911D9695879501
:1019000097F9089597F99F6780E870E060E008957F
:101910009FEF80EC089500240A9416161706180607
:101920000906089500240A941216130614060506E3
:101930000895092E0394000C11F4882352F0BB0F74
:1019400040F4BF2B11F460FF04C06F5F7F4F8F4FD7
:101950009F4F089557FD9058440F551F59F05F3F12
:1019600071F04795880F97FB991F61F09F3F79F0C1
:1019700087950895121613061406551FF2CF469543
:10198000F1DF08C0161617061806991FF1CF8695C5
:101990007105610508940895E894BB2766277727A9
:1019A000CB0197F90895052E97FB1EF400940E9431
:1019B000EA0C57FD07D00E94340D07FC03D04EF40B
:1019C0000C94EA0C50954095309521953F4F4F4F20
:1019D0005F4F089590958095709561957F4F8F4FDB
:1019E0009F4F08950E94560DA59F900DB49F900D96
:1019F000A49F800D911D112408952F923F924F9224
:101A00005F926F927F928F929F92AF92BF92CF928E
:101A1000DF92EF92FF920F931F93CF93DF93CDB797
:101A2000DEB7CA1BDB0B0FB6F894DEBF0FBECDBF0F
:101A300009942A88398848885F846E847D848C84E0
:101A40009B84AA84B984C884DF80EE80FD800C81E9
:101A50001B81AA81B981CE0FD11D0FB6F894DEBFCC
:101A60000FBECDBFED010895A1E21A2EAA1BBB1B2C
:101A7000FD010DC0AA1FBB1FEE1FFF1FA217B3075A
:101A8000E407F50720F0A21BB30BE40BF50B661F70
:101A9000771F881F991F1A9469F760957095809534
:101AA00090959B01AC01BD01CF010895A29FB001AB
:101AB000B39FC001A39F700D811D1124911DB29F82
:101AC000700D811D1124911D0895DB018F939F934B
:101AD0000E94F20CBF91AF91A29F800D911DA39F18
:101AE000900DB29F900D11240895EE0FFF1F0590E9
:101AF000F491E02D09945058BB27AA270E94930D1A
:101B00000C94990C0E948B0C38F00E94920C20F0DF
:101B100039F49F3F19F426F40C94880C0EF4E095E8
:101B2000E7FB0C94820CE92F0E94AA0C58F3BA1719
:101B3000620773078407950720F079F4A6F50C94E3
:101B4000CC0C0EF4E0950B2EBA2FA02D0B01B90191
:101B500090010C01CA01A0011124FF27591B99F023
:101B6000593F50F4503E68F11A16F040A22F232F2F
:101B7000342F4427585FF3CF469537952795A7957F
:101B8000F0405395C9F77EF41F16BA0B620B730B26
:101B9000840BBAF09150A1F0FF0FBB1F661F771F97
:101BA000881FC2F70EC0BA0F621F731F841F48F44C
:101BB000879577956795B795F7959E3F08F0B0CFD5
:101BC0009395880F08F09927EE0F979587950895BC
:101BD0000E94FC0D0C94990C0E94920C58F00E94EB
:101BE0008B0C40F029F45F3F29F00C94820C5111CA
:101BF0000C94CD0C0C94880C0E94AA0C68F39923C9
:101C0000B1F3552391F3951B550BBB27AA276217F8
:101C10007307840738F09F5F5F4F220F331F441F05
:101C2000AA1FA9F335D00E2E3AF0E0E832D0915039
:101C30005040E695001CCAF72BD0FE2F29D0660F26
:101C4000771F881FBB1F261737074807AB07B0E869
:101C500009F0BB0B802DBF01FF2793585F4F3AF06F
:101C60009E3F510578F00C94820C0C94CD0C5F3F94
:101C7000E4F3983ED4F3869577956795B795F795F5
:101C80009F5FC9F7880F911D9695879597F90895DD
:101C9000E1E0660F771F881FBB1F62177307840779
:101CA000BA0720F0621B730B840BBA0BEE1F88F788
:101CB000E09508950E94610E6894B1110C94CD0CCA
:101CC00008950E94B20C88F09F5798F0B92F992779
:101CD000B751B0F0E1F0660F771F881F991F1AF017
:101CE000BA95C9F714C0B13091F00E94CC0CB1E0A4
:101CF00008950C94CC0C672F782F8827B85F39F0A3
:101D0000B93FCCF3869577956795B395D9F73EF4AF
:101D100090958095709561957F4F8F4F9F4F089557
:101D20000F931F93CF93DF938230910510F482E0DD
:101D300090E0E0911902F0911A0230E020E0B0E06A
:101D4000A0E0309799F42115310509F44AC0281B09
:101D5000390B24303105D8F58A819B8161157105D5
:101D600089F1FB0193838283FE0111C0408151817F
:101D70000281138148175907E0F04817590799F471
:101D8000109761F012960C93129713961C9332964B
:101D9000CF01DF91CF911F910F9108950093190208
:101DA00010931A02F4CF2115310551F04217530751
:101DB00038F0A901DB019A01BD01DF01F801C1CFB3
:101DC000EF01F9CF90931A0280931902CDCFFE0153
:101DD000E20FF31F819391932250310939832883B5
:101DE000D7CF2091170230911802232B41F4209174
:101DF00010013091110130931802209317022091A5
:101E00000E0130910F012115310541F42DB73EB778
:101E10004091120150911301241B350BE0911702E0
:101E2000F0911802E217F307A0F42E1B3F0B2817BE
:101E3000390778F0AC014E5F5F4F2417350748F043
:101E40004E0F5F1F50931802409317028193919396
:101E50009FCFF0E0E0E09CCFCF93DF930097E9F0D5
:101E6000FC01329713821282A0911902B0911A02DA
:101E7000ED0130E020E01097A1F420813181820F44
:101E8000931F20911702309118022817390709F083
:101E900061C0F0931802E0931702DF91CF9108958B
:101EA000EA01CE17DF07E8F54A815B819E01411503
:101EB0005105B1F7E901FB83EA8349915991C40FB8
:101EC000D51FEC17FD0761F4808191810296840F84
:101ED000951FE90199838883828193819B838A83FB
:101EE000F0E0E0E012968D919C9113970097B9F580
:101EF0002D913C911197CD010296820F931F209155
:101F00001702309118022817390739F6309751F522
:101F100010921A0210921902B0931802A09317029D
:101F2000BCCFD383C28340815181840F951FC817D2
:101F3000D90761F44E5F5F4F88819981480F591F1F
:101F4000518340838A819B8193838283211531054C
:101F500009F0B0CFF0931A02E09319029ECFFD0171
:101F6000DC01C0CF13821282D7CFB0E0A0E0EBEB50
:101F7000FFE00C94FF0C8C01009751F4CB010E9400
:101F8000900E8C01C801CDB7DEB7E0E10C941B0DBB
:101F9000FC01E60FF71F9C0122503109E217F307FD
:101FA00008F49DC0D901CD91DC911197C617D707D0
:101FB00098F0C530D10530F3CE0104978617970706
:101FC00008F3C61BD70B2297C193D1936D937C93D3
:101FD000CF010E942C0FD6CF5B01AC1ABD0A4C0179
:101FE0008C0E9D1EA0911902B0911A02512C412C09
:101FF000F12CE12C109731F5809117029091180285
:102000008815990509F05CC04616570608F058C0B7
:1020100080910E0190910F01009741F48DB79EB70A
:102020004091120150911301841B950BE817F90799
:1020300008F055C0F0931802E0931702F90171837C
:102040006083A0CF8D919C91119712966C901297FE
:1020500013967C901397A815B90559F56C0142E0C9
:10206000C40ED11CCA14DB0420F1AC014A195B096F
:10207000DA011296159780F0628273825183408351
:10208000D9016D937C93E114F10471F0D70113969B
:10209000FC93EE93129776CF22968C0F9D1FF90139
:1020A00091838083F301EFCFF0931A02E09319023A
:1020B00069CF4816590608F42C017D01D3019ACF47
:1020C000CB010E94900E7C01009749F0AE01B8014F
:1020D0000E947210C8010E942C0F870153CF10E09C
:1020E00000E050CFFB01DC0102C001900D92415095
:1020F0005040D8F70895FB01DC018D9101908019C3
:102100000110D9F3990B0895FB01DC0101900D92A8
:102110000020E1F7089510E0C2E6D0E004C0FE011F
:102120000E94750D2196C336D107C9F7F894FFCFE9
:10213000020003000400050006000700080000007C
:102140001B028000000000002E04FD0260037804E2
:102150009303710385030D0A0054004C004D0048A1
:0821600000520055004400008C
:00000001FF
