:100000000C9463000C948B000C948B000C948B006C
:100010000C948B000C948B000C948B000C948B0034
:100020000C948B000C948B000C948B000C948B0024
:100030000C948B000C948B000C948B000C948B0014
:100040000C94200B0C948B000C94AA0B0C94840B36
:100050000C948B000C948B000C948B000C948B00F4
:100060000C948B000C948B000000000024002700EF
:100070002A0000000000250028002B0000000000DE
:1000800023002600290004040404040404040202DA
:100090000202020203030303030301020408102007
:1000A0004080010204081020010204081020000012
:1000B0000008000201000003040700000000000027
:1000C0000000130BE20B11241FBECFEFD8E0DEBF00
:1000D000CDBF11E0A0E0B1E0E0E4F1E202C00590A4
:1000E0000D92AA33B107D9F722E0AAE3B1E001C02B
:1000F0001D92A134B207E1F710E0C2E6D0E004C0DF
:100100002197FE010E947D0DC136D107C9F70E94DB
:100110007B0B0C9493100C94000008958330B1F085
:1001200060F08730E9F0883009F1843021F5E0E8AB
:10013000F0E080818F7D80830895813069F0823086
:1001400021F484B58F7D84BD08950895E0E8F0E042
:1001500080818F778083089584B58F7784BD0895DB
:10016000E0EBF0E080818F7780830895E0EBF0E0B2
:1001700080818F7D80830895CF93DF93282F30E097
:10018000F901E255FF4F8491F901E656FF4FD491F2
:10019000F901EA57FF4FC491CC23B1F081110EC091
:1001A000EC2FF0E0EE0FFF1FE458FF4FA591B49144
:1001B000EC91ED2331F490E080E008C00E948E00C5
:1001C000EFCF81E090E002C090E080E0DF91CF913E
:1001D00008951F93CF93DF93282F30E0F901E25564
:1001E000FF4F8491F901E656FF4F1491F901EA5748
:1001F000FF4FC491CC23A9F0D62F811116C0EC2F4C
:10020000F0E0EE0FFF1FEE58FF4FA591B4918FB7AE
:10021000F894D1110DC09C91E12FE095E923EC9366
:100220008FBFDF91CF911F9108950E948E00E7CF7D
:10023000EC91E12BEC93F4CFCF93DF9390E0FC01B2
:10024000E656FF4F24918A579F4FFC0184918823E3
:1002500019F190E0880F991FFC01E859FF4FA59113
:10026000B491FC01EE58FF4FC591D491662349F03B
:100270006230A9F08FB7F894EC91E22BEC938FBF2A
:100280000BC09FB7F8948C91E22FE0958E238C934E
:100290008881E823E8839FBFDF91CF9108959FB7BE
:1002A000F8943C91822F809583238C93E881E22BF4
:1002B000E8839FBFF1CF1F93CF93DF93182FEB01FC
:1002C00061E00E941C012097D9F0CF3FD10501F1D8
:1002D000E12FF0E0E255FF4FE491E33061F1E8F007
:1002E000E730E9F1E83009F442C0E43071F1C03898
:1002F000D1050CF444C061E0812F0E94E90004C0E4
:1003000060E0812F0E94E900DF91CF911F91089555
:1003100061E0812F0E94E900F7CFE13039F0E2304F
:1003200031F784B5806284BDC8BDEECF84B58068E6
:1003300084BDC7BDE9CFE0E8F0E0808180688083BC
:10034000D0938900C0938800DFCFE0E8F0E080819F
:1003500080628083D0938B00C0938A00D5CFE0EB7E
:10036000F0E0808180688083C093B300CDCFE0EB64
:10037000F0E0808180628083C093B400C5CF60E0EC
:10038000812F0E94E900C0CF8E3008F08E50877018
:10039000806480937C00EAE7F0E080818064808361
:1003A00080917A0086FDFCCF809178009091790051
:1003B0000895789484B5826084BD84B5816084BDDD
:1003C00085B5826085BD85B5816085BDEEE6F0E0CE
:1003D000808181608083E1E8F0E01082808182602A
:1003E0008083808181608083E0E8F0E080818160AB
:1003F0008083E1EBF0E0808184608083E0EBF0E0DB
:10040000808181608083EAE7F0E08081846080837E
:100410008081826080838081816080838081806828
:1004200080831092C10008958230910538F0880FC2
:10043000991F880F991F05970197F1F708953FB706
:10044000F8948091390290913A02A0913B02B091C8
:100450003C0226B5A89B05C02F3F19F00196A11DAF
:10046000B11D3FBFBA2FA92F982F8827BC01CD01FE
:10047000620F711D811D911D660F771F881F991FC7
:10048000660F771F881F991F08958F929F92AF92D2
:10049000BF92CF92DF92EF92FF926B017C010E949C
:1004A0001F024B015C011BC021E0C21AD108E10808
:1004B000F10888EE880E83E0981EA11CB11CC114BF
:1004C000D104E104F10459F00E941F02681979096E
:1004D0008A099B09683E73408105910528F7C1147C
:1004E000D104E104F10459F7FF90EF90DF90CF9031
:1004F000BF90AF909F908F9008952FB7F894609120
:1005000035027091360280913702909138022FBFE8
:10051000089508950F931F93CF93DF93EC010E94EA
:100520007D02688779878A879B87E881F9810284C1
:10053000F385E02DCE0109959923ACF40E947D024C
:10054000088519852A853B85601B710B820B930BEF
:100550000C811D812E813F816017710782079307EF
:1005600020F38FEF9FEFDF91CF911F910F910895AF
:10057000DB0114964D915C9115976D917C91DC0196
:10058000ED91FC910280F381E02D09950895CF92C1
:10059000DF92EF92FF920F931F93CF93DF938C0123
:1005A000DB01D0E0C0E07A0181E0E81AF108452BD8
:1005B000A1F0F80180819181FC01208131816D01E0
:1005C000FFEFCF1ADF0A6C91C801F9010995892B59
:1005D00021F02196A701D601E6CFCE01DF91CF9180
:1005E0001F910F91FF90EF90DF90CF9008950197AA
:1005F00009F008956F3F7F4FE1F7E7E9F1E01382DB
:10060000128288EE93E0A0E0B0E084839583A68315
:10061000B78388E191E09183808385EC90E09587B2
:10062000848784EC90E09787868780EC90E0918BBC
:10063000808B81EC90E0938B828B82EC90E0958BA9
:10064000848B86EC90E0978B868B118E128E138EA6
:10065000148ECFCFFC01938D848D981720F4891BC5
:10066000990B019708952FE330E0291B3109820F80
:10067000932F911D0895FC01918D828D981761F043
:10068000A28DAE0FBF2FB11D5D968C91928D9F5F95
:100690009F73928F90E008958FEF9FEF0895FC0174
:1006A000918D828D981731F0828DE80FF11D858D27
:1006B00090E008958FEF9FEF0895FC01218D30E0C9
:1006C000205C3F4F828DA901481B5109CA018F73DD
:1006D0009927089587E991E00E945D0321E0892B25
:1006E00009F420E0822F0895CF92DF92EF92FF92DB
:1006F0001F93CF93DF93EC016A017B01122F60E01F
:1007000079E08DE390E0A70196010E945B0D2150F6
:100710003109410951095695479537952795E8893B
:10072000F98982E08083C11481EED806E104F104E6
:1007300021F0211580E1380798F0E889F9891082C5
:1007400060E874E88EE190E0A70196010E945B0DDD
:1007500021503109410951095695479537952795FB
:10076000EC85FD853083EE85FF852083188EEC892E
:10077000FD891083EA89FB89808180618083EA8911
:10078000FB89808188608083EA89FB898081806819
:100790008083EA89FB8980818F7D8083DF91CF917F
:1007A0001F91FF90EF90DF90CF900895FC01A48DF2
:1007B000A80FB92FB11DA35ABF4F2C91848D90E083
:1007C00001968F739078848FA689B7892C93A0891E
:1007D000B1898C91837080648C93938D848D9813F0
:1007E00008950288F389E02D80818F7D8083F8CF82
:1007F0000F931F93CF93DF93EC0181E0888F9B8D44
:100800008C8D9817B1F0062F8B8D90E001968F7329
:100810009078182F8C8D81131EC00FB607FCFACF6D
:10082000E889F989808185FFF5CFCE010E94D60342
:10083000F1CFE889F989808185FFE5CF9FB7F894EA
:10084000EE89FF896083E889F989808183708064FB
:1008500080839FBF10C0EB8DEC0FFD2FF11DE35A7D
:10086000FF4F00839FB7F8941B8FEA89FB89808133
:10087000806280839FBF81E090E0DF91CF911F91E4
:100880000F910895CF93DF93EC01888D811104C0FF
:100890000DC00FB607FE0DC0EA89FB89808185FD7A
:1008A000F8CFA889B9898C9186FFF3CFDF91CF91DA
:1008B0000895808185FFF0CFE889F989808185FFDF
:1008C000EBCFCE010E94D603E7CF80E090E0892BEA
:1008D00021F00E946A03811101C008950E94000066
:1008E000FCCFFC0160834183089560E0FC018081BE
:1008F0000E941C010895EF92FF920F931F93CF93D4
:10090000DF93EC017B018A0145E263E206960E94D7
:100910007104F982E88283E090E09B838A8381E41A
:1009200090E09D838C831F830E83DF91CF911F9175
:100930000F91FF90EF9008950F931F93CF93DF9344
:10094000EC0188810E94C4018C01095511408A8103
:100950000E94C401875491402C813D814427552732
:10096000421B530B041715077CF0201731079CF02E
:10097000281739079CF0841795071CF090E080E059
:1009800005C084E090E002C081E090E0DF91CF916B
:100990001F910F91089582E090E0F8CF83E090E0FE
:1009A000F5CFCF93DF93EC0160E088810E941C01BA
:1009B00060E08A810E941C01DF91CF910895CF925F
:1009C000DF92EF92FF920F931F93CF93DF93EC018F
:1009D0006B017A01890145E263E206960E94710487
:1009E000D982C882FB82EA8284E690E09D838C8370
:1009F0001F830E83DF91CF911F910F91FF90EF9096
:100A0000DF90CF900895CF92DF92EF92FF920F93F5
:100A10001F93CF93DF93EC010E947D020A811B811B
:100A20002C813D81601B710B820B930B0E811F810A
:100A3000288539850617170728073907B8F10E9456
:100A40007D020A811B812C813D81601B710B820B11
:100A5000930B0E94290C6B017C016E817F8188853C
:100A600099850E94290C9B01AC01C701B6010E9427
:100A7000F00D9B01AC0160E070E080E89FE30E9414
:100A8000830D20E030E04FE753E40E94660CC881FC
:100A90000E94620E8C2F0E945B01DF91CF911F910B
:100AA0000F91FF90EF90DF90CF90089560E08881E4
:100AB0000E94E900F2CFCF93DF93EC0161E08881DF
:100AC0000E94E9000E947D026A837B838C839D8360
:100AD000DF91CF910895CF93DF93EC0161E088819E
:100AE0000E941C0160E088810E94E900DF91CF91A3
:100AF00008950F931F93CF93DF938C01D0E0C0E054
:100B0000C730D1057CF4FE01EE0FFF1FE00FF11F8F
:100B100062E080810E941C01F801EC0FFD1F168627
:100B20002196EECFDF91CF911F910F91089526E08E
:100B300040E855E260E070E087E991E00E947403CC
:100B400061E08CE00E941C0161E08DE00E941C01CC
:100B500061E082E10E941C0161E08CE00E94E900FA
:100B600060E08DE00E94E90060E082E10E94E9001F
:100B700060E080E10E941C018EE791E00E9479050F
:100B800086E791E00E94D10486E691E00E946B0521
:100B90008EE391E00E9475040895EF92FF920F9307
:100BA0001F93CF93DF93EC018B017A0145E263E25F
:100BB00045960E947104FE8AED8A30E020E02730DD
:100BC000310584F4C901880F991FF801E80FF91F56
:100BD000408151818C0F9D1FFC01518340832F5F09
:100BE0003F4FEDCFDF91CF911F910F91FF90EF908D
:100BF0000895DC0114962D913C911597232B69F4EF
:100C00006115710541F0FB018081882311F080E0BE
:100C1000089581E0089581E008956115710559F006
:100C2000FC01808191810E94831021E0892B09F0D1
:100C300020E0822F0895ED91FC91908181E099232D
:100C4000C9F380E00895CF93DF93DB01EC01E881E5
:100C5000F981309761F06D917C9111976115710563
:100C600031F0CF010E948310DF91CF910895CD9193
:100C7000DC911197209729F014962D913C91232B0C
:100C800059F4309779F0DC0114968D919C91892B61
:100C900061F0808190E0E8CF888190E09195819526
:100CA0009109E2CF90E080E0DFCF90E080E0DCCF00
:100CB000FC0144815581FB01248135814217530792
:100CC00011F080E008950E942306892B11F080E046
:100CD000089581E00895DC01ED91FC910280F3819B
:100CE000E02D42E050E066E271E0099508950F932F
:100CF0001F93CF93DF93EC010E94B8028C01CE01C9
:100D00000E946B06800F911FDF91CF911F910F9171
:100D100008950F931F93CF93DF93EC018B016F5FC7
:100D20007F4F888199810E94BD0F009751F0998370
:100D300088831B830A8381E0DF91CF911F910F91FC
:100D4000089580E0F9CFCF93DF93EC0128813981BA
:100D5000232B29F02A813B812617370770F4CE0117
:100D60000E948906882351F08C819D81892B49F44A
:100D7000E881F981108281E001C081E0DF91CF91AB
:100D8000089581E0FBCFEF92FF920F931F93CF93D3
:100D9000DF93FC01C481D581C40FD51F6115710596
:100DA00001F1452B41F481E0DF91CF911F910F912B
:100DB000FF90EF9008957B018C01BE010E94A30675
:100DC000882391F3F8012081318184819581B701D5
:100DD000820F931F0E948C10F801D583C48381E099
:100DE000E3CF80E0E1CFCF93DF9300D0CDB7DEB784
:100DF00069831A8241E050E0BE016F5F7F4F0E941D
:100E0000C3060F900F90DF91CF910895CF93DF939A
:100E1000EC0188819981009711F00E94340F1982AA
:100E200018821D821C821B821A82DF91CF91089545
:100E3000CF93DF93EC010E94F306882321F0CE01CB
:100E4000DF91CF910895CE010E940607F8CFCF938E
:100E5000DF93EC01FB0144815581608171810E9427
:100E6000C306882321F0CE01DF91CF910895CE01F2
:100E70000E940607F8CFEF92FF920F931F93CF9334
:100E8000DF93EC017B018A01BA010E94A30688234B
:100E900079F01D830C83B701888199810E948C10A1
:100EA000CE01DF91CF911F910F91FF90EF900895A8
:100EB000CE010E940607F4CFCF93DF93EC016115BA
:100EC000710571F0FB0101900020E9F73197AF0146
:100ED000461B570B0E943B07CE01DF91CF9108952F
:100EE0000E940607F9CFCF93DF9300D0CDB7DEB7CE
:100EF000FC0111821082138212821582148269838E
:100F00001A82BE016F5F7F4F0E945C070F900F90A7
:100F1000DF91CF910895CF93DF93EC01FB0186170A
:100F2000970749F0608171816115710541F0448135
:100F300055810E943B07CE01DF91CF9108950E9419
:100F40000607F9CFFC0111821082138212821582EA
:100F500014820E948B070895CF93DF93EC01665FA4
:100F60007F4F0E94A207CE01DF91CF910895FC012F
:100F7000118210821382128215821482611571050A
:100F800051F0FB0101900020E9F73197AF01461BBA
:100F9000570B0E943B070895FF920F931F93CF9327
:100FA000DF93EC018B01F42E68E271E00E94B70739
:100FB000C8010E948A0299237CF02F2D0F2C000C6F
:100FC000330B2817390741F0682FCE010E94F30632
:100FD000C8010E948A02EFCFCE01DF91CF911F910D
:100FE0000F91FF900895AF92BF92CF92DF92EF9250
:100FF000FF920F931F93CF93DF93EC015B017A0174
:1010000069011A821B821C821D828C01065F1F4FA0
:1010100068E271E0C8010E94B707B982A882C601E0
:10102000DD0CAA0BBB0B8E839F83A887B987B70102
:10103000C8010E948B07DF91CF911F910F91FF9004
:10104000EF90DF90CF90BF90AF900895FC0180812A
:101050009181009711F00E94340F0895EF92FF9252
:101060000F931F93CF93DF9300D000D000D0CDB764
:10107000DEB78C017B0187E991E00E945D03892B3B
:1010800099F468E271E0C8010E94B707C80126968A
:101090000FB6F894DEBF0FBECDBFDF91CF911F9189
:1010A0000F91FF90EF900895F701408167E971E09B
:1010B000CE0101960E94CC07CE0101960E9426081F
:1010C000F701418167E971E0C8010E94CC07DECFDA
:1010D000EF92FF920F931F93CF93DF93CDB7DEB7BD
:1010E00062970FB6F894DEBF0FBECDBF8C017B01B7
:1010F000019799F0012B21F4EF20E09409F476C0D8
:1011000062960FB6F894DEBF0FBECDBFDF91CF91D0
:101110001F910F91FF90EF9008956F3F7F4F51F710
:1011200045E263E285E991E00E94710440919501F6
:101130005091960160E071E08EE791E00E94CD054C
:1011400020919501309196014FE050E06EE070E003
:1011500086E791E00E94DF0469E271E0CE010D961E
:101160000E94B70728EB3BE0AE01435F5F4F6BE0A7
:1011700070E086E691E00E94F307CE010D960E9492
:1011800026086BE271E0CE0107960E94B70728EBB4
:101190003BE0AE01495F5F4F61E170E086E591E0C1
:1011A0000E94F307CE0107960E9426086DE271E0C7
:1011B000CE0101960E94B70728EB3BE0AE014F5FDE
:1011C0005F4F63E170E086E491E00E94F307CE0197
:1011D00001960E942608409195015091960160E188
:1011E00070E08EE391E00E947B0484CF80E591E083
:1011F0000E94260880E691E00E94260880E791E0A0
:101200000E9426087DCFFF920F931F93CF93DF9309
:1012100000D000D000D0CDB7DEB78B01FC01F1804B
:101220006081CE0101960E947307B801CE0101963C
:101230000E9427076F2D0E941807BC01C8010E9459
:101240008B07CE0101960E942608B80187E991E03C
:101250000E94770626960FB6F894DEBF0FBECDBF6C
:10126000DF91CF911F910F91FF9008950F931F93DE
:10127000CF93DF93CDB7DEB762970FB6F894DEBF9A
:101280000FBECDBF8C01CB01F801118210821382F9
:1012900012821582148250E0BE016F5F7F4F0E9460
:1012A000E90BBE016F5F7F4FC8010E945C07629629
:1012B0000FB6F894DEBF0FBECDBFDF91CF911F9167
:1012C0000F910895EF92FF920F931F93CF93DF93A7
:1012D00000D000D000D0CDB7DEB77C0110E000E038
:1012E0000CC0F801EE0FFF1FEE0DFF1D80810E9464
:1012F000BC00019791F10F5F1F4F0730110594F566
:10130000F801EE0FFF1FEE0DFF1D80810E94BC0053
:10131000892B39F7F701E00FF11F86858111E1CFA5
:101320004AE0B801CE0101960E943609BE016F5F06
:101330007F4FC70145960E940309CE0101960E9486
:10134000260881E0F701E00FF11F86876AE070E070
:1013500080E090E00E944502CECFF701E00FF11F40
:101360001686C9CF26960FB6F894DEBF0FBECDBF46
:10137000DF91CF911F910F91FF90EF900895CF9241
:10138000DF92EF92FF920F931F93CF93DF93CDB72E
:10139000DEB7E0970FB6F894DEBF0FBECDBF65E9AC
:1013A00071E0CE0185960E942E088EE791E00E94A2
:1013B000620986E791E00E949C040E947D020091F0
:1013C0003A0110913B0120913C0130913D016B01AC
:1013D0007C01C01AD10AE20AF30A86E791E00E9472
:1013E0009C048C0168E271E0CE018B960E94B707E5
:1013F0000130110509F486C00230110509F489C0D5
:1014000068E271E0CE018B960E94F905811107C058
:1014100085E6C816D104E104F10408F081C068E251
:1014200071E0CE018B960E945C070330110509F430
:101430009AC00430110509F49DC068E271E0CE0144
:101440008B960E94F905811107C085E6C816D10464
:10145000E104F10408F095C066E671E0CE01439620
:101460000E94AC07BE016B5D7F4FCE0143960E9488
:101470005806182FCE0143960E94260811119EC0CF
:1014800066E571E0CE010D960E94AC07BE016B5D72
:101490007F4FCE010D960E945806182FCE010D9653
:1014A0000E9426081111B5C066E471E0CE010796CE
:1014B0000E94AC07BE016B5D7F4FCE0107960E9474
:1014C0005806182FCE0107960E9426081111A6C0B3
:1014D00068E271E0CE0185960E94F905811172C023
:1014E00067E371E0CE0101960E94B707BE016F5F0E
:1014F0007F4F85E991E00E940309CE0101960E9489
:10150000260860C06FE271E0CE018B960E945C07F6
:1015100077CF61E371E0CE018B960E945C0770CFBC
:10152000BE01655D7F4FCE014F960E94A207BE01AE
:10153000615E7F4F85E991E00E940309CE014F96DD
:101540000E94260868E271E0CE018B960E945C073B
:101550000E947D0260933A0170933B0180933C01AD
:1015600090933D015CCF63E371E0CE018B960E94C6
:101570005C0763CF65E371E0CE018B960E945C0748
:101580005CCFBE01655D7F4FCE0149960E94A207E8
:10159000BE01675E7F4F85E991E00E940309CE019D
:1015A00049960E9426080E947D0260933A0170933A
:1015B0003B0180933C0190933D014ECF86E691E044
:1015C0000E945B0586E691E00E94030586E591E0B6
:1015D0000E94030586E491E00E9403058AE090E002
:1015E0000E941402CE018B960E942608CE01859699
:1015F0000E942608E0960FB6F894DEBF0FBECDBF5E
:10160000DF91CF911F910F91FF90EF90DF90CF90DE
:10161000089586E591E00E945B05D4CF86E491E0D1
:101620000E945B05CFCF6FEF7FEF81E090E00E94DB
:10163000F7026FEF7FEF81E090E00E946808089565
:101640001F920F920FB60F9211240F931F932F9397
:101650003F934F935F936F937F938F939F93AF933A
:10166000BF930091350210913602209137023091DC
:10167000380290913402B901A8014F5F5F4F6F4F5C
:101680007F4F83E0890F8D3740F086E8890FB901DD
:10169000A8014E5F5F4F6F4F7F4F8093340240939E
:1016A000350250933602609337027093380280916E
:1016B000390290913A02A0913B02B0913C0201960E
:1016C000A11DB11D8093390290933A02A0933B0271
:1016D000B0933C02BF91AF919F918F917F916F9199
:1016E0005F914F913F912F911F910F910F900FBEDE
:1016F0000F901F9018950E94D9010E9497050E9493
:10170000BF090E946504FBCF1F920F920FB60F9284
:1017100011242F933F934F935F936F937F938F93F6
:101720009F93AF93BF93EF93FF9387E991E00E945C
:10173000D603FF91EF91BF91AF919F918F917F91D0
:101740006F915F914F913F912F910F900FBE0F902E
:101750001F9018951F920F920FB60F9211242F937E
:101760008F939F93AF93BF93EF93FF93E091A70164
:10177000F091A801808182FD14C0E7E9F1E0A6891B
:10178000B7892C91818D8F5F8F73928D891771F03E
:10179000DF01E18DF0E0E956FE4F258F59968C93DD
:1017A00005C0E091AD01F091AE018081FF91EF9114
:1017B000BF91AF919F918F912F910F900FBE0F907E
:1017C0001F9018956FEF7FEF90E080E00E9468080F
:1017D00008954532510520F4423010F00C94F40B7A
:1017E000FB011082CB010895BB274A3031F49923C5
:1017F00022F4BDE2909581959F4F0C94000CBB277D
:10180000FB015527AA27880F991FAA1FA41710F0BC
:10181000A41B83955051B9F7A05DAA3308F0A95DC8
:10182000A193009779F7B111B1931192CB010C9468
:10183000190CDC01FC01672F71917723E1F73297D6
:1018400004C07C916D9370836291AE17BF07C8F39B
:101850000895E89409C097FB3EF4909580957095A3
:1018600061957F4F8F4F9F4F9923A9F0F92F96E9EC
:10187000BB279395F695879577956795B795F11161
:10188000F8CFFAF4BB0F11F460FF1BC06F5F7F4FFE
:101890008F4F9F4F16C0882311F096E911C0772310
:1018A00021F09EE8872F762F05C0662371F096E819
:1018B000862F70E060E02AF09A95660F771F881FE8
:1018C000DAF7880F9695879597F908950E94790C15
:1018D0000C94EA0C0E94DC0C38F00E94E30C20F01F
:1018E000952311F00C94D30C0C94D90C11240C9466
:1018F0001E0D0E94FB0C70F3959FC1F3950F50E0F5
:10190000551F629FF001729FBB27F00DB11D639FB1
:10191000AA27F00DB11DAA1F649F6627B00DA11D57
:10192000661F829F2227B00DA11D621F739FB00DFD
:10193000A11D621F839FA00D611D221F749F33276D
:10194000A00D611D231F849F600D211D822F762F06
:101950006A2F11249F5750409AF0F1F088234AF0E3
:10196000EE0FFF1FBB1F661F771F881F915050404F
:10197000A9F79E3F510580F00C94D30C0C941E0DDA
:101980005F3FE4F3983ED4F3869577956795B795D6
:10199000F795E7959F5FC1F7FE2B880F911D9695F0
:1019A000879597F9089597F99F6780E870E060E060
:1019B00008959FEF80EC089500240A9416161706E8
:1019C00018060906089500240A9412161306140630
:1019D00005060895092E0394000C11F4882352F093
:1019E000BB0F40F4BF2B11F460FF04C06F5F7F4F4B
:1019F0008F4F9F4F089557FD9058440F551F59F032
:101A00005F3F71F04795880F97FB991F61F09F3FEB
:101A100079F087950895121613061406551FF2CF14
:101A20004695F1DF08C0161617061806991FF1CF64
:101A300086957105610508940895E894BB2766278B
:101A40007727CB0197F908952F923F924F925F929B
:101A50006F927F928F929F92AF92BF92CF92DF92BE
:101A6000EF92FF920F931F93CF93DF93CDB7DEB723
:101A7000CA1BDB0B0FB6F894DEBF0FBECDBF0994B7
:101A80002A88398848885F846E847D848C849B840E
:101A9000AA84B984C884DF80EE80FD800C811B811C
:101AA000AA81B981CE0FD11D0FB6F894DEBF0FBE4B
:101AB000CDBFED010895A1E21A2EAA1BBB1BFD01AB
:101AC0000DC0AA1FBB1FEE1FFF1FA217B307E4071D
:101AD000F50720F0A21BB30BE40BF50B661F771F75
:101AE000881F991F1A9469F7609570958095909555
:101AF0009B01AC01BD01CF010895EE0FFF1F0590C2
:101B0000F491E02D09945058BB27AA270E949B0D01
:101B10000C94EA0C0E94DC0C38F00E94E30C20F0DC
:101B200039F49F3F19F426F40C94D90C0EF4E09587
:101B3000E7FB0C94D30CE92F0E94FB0C58F3BA1767
:101B4000620773078407950720F079F4A6F50C94D3
:101B50001D0D0EF4E0950B2EBA2FA02D0B01B9012F
:101B600090010C01CA01A0011124FF27591B99F013
:101B7000593F50F4503E68F11A16F040A22F232F1F
:101B8000342F4427585FF3CF469537952795A7956F
:101B9000F0405395C9F77EF41F16BA0B620B730B16
:101BA000840BBAF09150A1F0FF0FBB1F661F771F87
:101BB000881FC2F70EC0BA0F621F731F841F48F43C
:101BC000879577956795B795F7959E3F08F0B0CFC5
:101BD0009395880F08F09927EE0F979587950895AC
:101BE0000E94040E0C94EA0C0E94E30C58F00E9430
:101BF000DC0C40F029F45F3F29F00C94D30C511118
:101C00000C941E0D0C94D90C0E94FB0C68F39923C4
:101C1000B1F3552391F3951B550BBB27AA276217E8
:101C20007307840738F09F5F5F4F220F331F441FF5
:101C3000AA1FA9F335D00E2E3AF0E0E832D0915029
:101C40005040E695001CCAF72BD0FE2F29D0660F16
:101C5000771F881FBB1F261737074807AB07B0E859
:101C600009F0BB0B802DBF01FF2793585F4F3AF05F
:101C70009E3F510578F00C94D30C0C941E0D5F3FE1
:101C8000E4F3983ED4F3869577956795B795F795E5
:101C90009F5FC9F7880F911D9695879597F90895CD
:101CA000E1E0660F771F881FBB1F62177307840769
:101CB000BA0720F0621B730B840BBA0BEE1F88F778
:101CC000E09508950E94690E6894B1110C941E0D60
:101CD00008950E94030D88F09F5798F0B92F992717
:101CE000B751B0F0E1F0660F771F881F991F1AF007
:101CF000BA95C9F714C0B13091F00E941D0DB1E042
:101D000008950C941D0D672F782F8827B85F39F040
:101D1000B93FCCF3869577956795B395D9F73EF49F
:101D200090958095709561957F4F8F4F9F4F089547
:101D30000F931F93CF93DF938230910510F482E0CD
:101D400090E0E0913F02F091400230E020E0B0E00E
:101D5000A0E0309799F42115310509F44AC0281BF9
:101D6000390B24303105D8F58A819B8161157105C5
:101D700089F1FB0193838283FE0111C0408151816F
:101D80000281138148175907E0F04817590799F461
:101D9000109761F012960C93129713961C9332963B
:101DA000CF01DF91CF911F910F91089500933F02D2
:101DB00010934002F4CF2115310551F0421753071B
:101DC00038F0A901DB019A01BD01DF01F801C1CFA3
:101DD000EF01F9CF9093400280933F02CDCFFE01F7
:101DE000E20FF31F819391932250310939832883A5
:101DF000D7CF20913D0230913E02232B41F4209118
:101E000010013091110130933E0220933D02209148
:101E10000E0130910F012115310541F42DB73EB768
:101E20004091120150911301241B350BE0913D02AA
:101E3000F0913E02E217F307A0F42E1B3F0B281788
:101E4000390778F0AC014E5F5F4F2417350748F033
:101E50004E0F5F1F50933E0240933D02819391933A
:101E60009FCFF0E0E0E09CCFCF93DF930097E9F0C5
:101E7000FC01329713821282A0913F02B09140027E
:101E8000ED0130E020E01097A1F420813181820F34
:101E9000931F20913D0230913E022817390709F027
:101EA00061C0F0933E02E0933D02DF91CF9108952F
:101EB000EA01CE17DF07E8F54A815B819E014115F3
:101EC0005105B1F7E901FB83EA8349915991C40FA8
:101ED000D51FEC17FD0761F4808191810296840F74
:101EE000951FE90199838883828193819B838A83EB
:101EF000F0E0E0E012968D919C9113970097B9F570
:101F00002D913C911197CD010296820F931F209144
:101F10003D0230913E022817390739F6309751F5C6
:101F20001092400210923F02B0933E02A0933D02F5
:101F3000BCCFD383C28340815181840F951FC817C2
:101F4000D90761F44E5F5F4F88819981480F591F0F
:101F5000518340838A819B8193838283211531053C
:101F600009F0B0CFF0934002E0933F029ECFFD0115
:101F7000DC01C0CF13821282D7CFB0E0A0E0E3EC47
:101F8000FFE00C94260D8C01009751F4CB010E94C8
:101F9000980E8C01C801CDB7DEB7E0E10C94420D7C
:101FA000FC01E60FF71F9C0122503109E217F307ED
:101FB00008F49DC0D901CD91DC911197C617D707C0
:101FC00098F0C530D10530F3CE01049786179707F6
:101FD00008F3C61BD70B2297C193D1936D937C93C3
:101FE000CF010E94340FD6CF5B01AC1ABD0A4C0161
:101FF0008C0E9D1EA0913F02B0914002512C412CAD
:10200000F12CE12C109731F580913D0290913E0228
:102010008815990509F05CC04616570608F058C0A7
:1020200080910E0190910F01009741F48DB79EB7FA
:102030004091120150911301841B950BE817F90789
:1020400008F055C0F0933E02E0933D02F901718320
:102050006083A0CF8D919C91119712966C901297EE
:1020600013967C901397A815B90559F56C0142E0B9
:10207000C40ED11CCA14DB0420F1AC014A195B095F
:10208000DA011296159780F0628273825183408341
:10209000D9016D937C93E114F10471F0D70113968B
:1020A000FC93EE93129776CF22968C0F9D1FF90129
:1020B00091838083F301EFCFF0934002E0933F02DE
:1020C00069CF4816590608F42C017D01D3019ACF37
:1020D000CB010E94980E7C01009749F0AE01B80137
:1020E0000E947A10C8010E94340F870153CF10E07C
:1020F00000E050CFFB01DC0102C001900D92415085
:102100005040D8F70895FB01DC018D9101908019B2
:102110000110D9F3990B0895FB01DC0101900D9298
:102120000020E1F7089510E0C2E6D0E004C0FE010F
:102130000E947D0D2196C336D107C9F7F894FFCFD1
:10214000020003000400050006000700080000006C
:102150004102800000000000F803C7022A03420485
:102160005D033B034F030D0A005400590057004C18
:0A2170000052005500440045000035
:00000001FF
