:100000000C9463000C948B000C948B000C948B006C
:100010000C948B000C948B000C948B000C948B0034
:100020000C948B000C948B000C948B000C948B0024
:100030000C948B000C948B000C948B000C948B0014
:100040000C9447050C948B000C94B7050C94910507
:100050000C948B000C948B000C948B000C948B00F4
:100060000C948B000C948B000000000024002700EF
:100070002A0000000000250028002B0000000000DE
:1000800023002600290004040404040404040202DA
:100090000202020203030303030301020408102007
:1000A0004080010204081020010204081020000012
:1000B0000008000201000003040700000000000027
:1000C0000000E905D30811241FBECFEFD8E0DEBF42
:1000D000CDBF11E0A0E0B1E0E2EDFAE102C0059091
:1000E0000D92A833B107D9F722E0A8E3B1E001C02F
:1000F0001D92AB33B207E1F710E0C2E6D0E004C0D6
:100100002197FE010E94460AC136D107C9F70E9415
:10011000BC060C945C0D0C940000833081F028F434
:10012000813099F08230A9F008958730A9F08830A5
:10013000C9F08430B1F4809180008F7D03C080913C
:1001400080008F7780938000089584B58F7784BD79
:10015000089584B58F7DFBCF8091B0008F77809319
:10016000B00008958091B0008F7DF9CFCF93DF93D9
:10017000282F30E0F901E255FF4F8491F901E6564E
:10018000FF4FD491F901EA57FF4FC491CC23A1F05E
:1001900081110E948D00EC2FF0E0EE0FFF1FE4585C
:1001A000FF4FA591B491EC91ED2381E090E009F42B
:1001B00080E0DF91CF91089580E090E0FACF1F9327
:1001C000CF93DF93282F30E0F901E255FF4F849160
:1001D000F901E656FF4FD491F901EA57FF4FC49158
:1001E000CC23A9F0162F81110E948D00EC2FF0E096
:1001F000EE0FFF1FEE58FF4FA591B4918FB7F89403
:10020000EC91111108C0D095DE23DC938FBFDF91F4
:10021000CF911F910895DE2BF8CFCF93DF9390E01D
:10022000FC01E656FF4F24918A579F4FFC018491B1
:100230008823C9F090E0880F991FFC01E859FF4F0F
:10024000A591B491FC01EE58FF4FC591D491611175
:100250000DC09FB7F8948C91209582238C93888150
:10026000282328839FBFDF91CF910895623051F4F6
:100270009FB7F8943C91822F809583238C93E881DB
:100280002E2BEFCF8FB7F894EC912E2B2C938FBFA2
:10029000EACF8E3008F08E508770806480937C00A7
:1002A00080917A00806480937A0080917A0086FD44
:1002B000FCCF809178009091790008953FB7F89431
:1002C00080913D0190913E01A0913F01B09140018C
:1002D00026B5A89B05C02F3F19F00196A11DB11DA1
:1002E0003FBFBA2FA92F982F8827BC01CD01620FDD
:1002F000711D811D911D42E0660F771F881F991F98
:100300004A95D1F708952FB7F8946091390170910B
:100310003A0180913B0190913C012FBF0895AF922B
:10032000BF92CF92DF92EF92FF920F931F93CF93E2
:10033000DF936C017B018B01040F151FEB015E0144
:10034000AE18BF08C017D10759F06991D601ED91D9
:10035000FC910190F081E02DC6010995892B79F778
:10036000C501DF91CF911F910F91FF90EF90DF902A
:10037000CF90BF90AF900895FC01538D448D252FF1
:1003800030E0842F90E0821B930B541710F0CF962F
:10039000089501970895FC01918D828D981761F061
:1003A000A28DAE0FBF2FB11D5D968C91928D9F5F78
:1003B0009F73928F90E008958FEF9FEF08950F93B2
:1003C0001F930E9483016093490170934A018093B7
:1003D0004B0190934C0181E491E00E94CB0197FF87
:1003E0001DC00E9483010091490110914A01209192
:1003F0004B0130914C01601B710B820B930B0091F0
:100400004501109146012091470130914801601744
:10041000710782079307F8F28FEF9FEF1F910F91FB
:100420000895FC01918D828D981731F0828DE80F2F
:10043000F11D858D90E008958FEF9FEF0895FC01E9
:10044000918D228D892F90E0805C9F4F821B9109B6
:100450008F739927089581E491E00E941F0221E0A3
:10046000892B09F420E0822F089580E090E0892B09
:1004700029F00E942B0281110C9400000895FC01C8
:10048000A48DA80FB92FB11DA35ABF4F2C91848DF5
:1004900090E001968F739927848FA689B7892C9352
:1004A000A089B1898C91837080648C93938D848DA5
:1004B000981306C00288F389E02D80818F7D8083A8
:1004C0000895EF92FF920F931F93CF93DF93EC0168
:1004D00081E0888F9B8D8C8D98131AC0E889F989EB
:1004E000808185FF15C09FB7F894EE89FF896083EE
:1004F000E889F98980818370806480839FBF81E06F
:1005000090E0DF91CF911F910F91FF90EF900895B0
:10051000F62E0B8D10E00F5F1F4F0F731127E02E8B
:100520008C8D8E110CC00FB607FCFACFE889F989C3
:10053000808185FFF5CFCE010E943F02F1CFEB8D88
:10054000EC0FFD2FF11DE35AFF4FF0829FB7F89497
:100550000B8FEA89FB8980818062CFCFCF93DF93B5
:10056000EC01888D8823B9F0AA89BB89E889F989CB
:100570008C9185FD03C0808186FD0DC00FB607FC00
:10058000F7CF8C9185FFF2CF808185FFEDCFCE0133
:100590000E943F02E9CFDF91CF910895CF92DF9281
:1005A000EF92FF920F931F93CF93DF93EC010E9482
:1005B00083010A811B812C813D81601B710B820BA1
:1005C000930B0E811F812885398506171707280789
:1005D000390760F460E08881DF91CF911F910F911E
:1005E000FF90EF90DF90CF900C94DF000E9483018A
:1005F0000A811B812C813D81601B710B820B930B47
:100600000E9414096B017C016E817F818885998528
:100610000E9414099B01AC01C701B6010E94B90AEE
:100620009B01AC0160E070E080E89FE30E944C0A0F
:1006300020E030E04FE753E40E9451090E942B0B69
:100640006B018B010990D881C02D61E08C2F0E9435
:100650000D01C114D10419F460E08C2FBDCF0F3F00
:10066000110511F461E0F9CFFE01FF27E255FF4FBC
:10067000E491E33059F140F4E130B1F0E23009F1B6
:10068000003811057CF7E8CFE73051F1E83081F10F
:10069000E430B1F780918000806280938000D09236
:1006A0008B00C0928A0004C084B5806884BDC7BC3A
:1006B000DF91CF911F910F91FF90EF90DF90CF903E
:1006C000089584B5806284BDC8BCF2CF809180005B
:1006D000806880938000D0928900C0928800E8CF23
:1006E0008091B00080688093B000C092B300E0CFEA
:1006F0008091B00080628093B000C092B400D8CFE7
:10070000CF93DF93EC0161E088810E94DF000E94BB
:1007100083016A837B838C839D83DF91CF910895CE
:10072000FC0124813581FB01448155812417350763
:10073000E1F4FC0180819181FB016081718100976E
:10074000D1F061157105A1F4232BC1F0FC0180816A
:1007500090E008C0232B91F0FB01808190E09195FF
:100760008195910921E0892B09F020E0822F0895DD
:100770000E944C0DF7CF6115710561F721E0F6CFAE
:100780000F931F93CF93DF93EC018881998100979A
:1007900059F02A813B812617370730F081E0DF913D
:1007A000CF911F910F9108958B016F5F7F4F0E9432
:1007B000860C009759F0998388831B830A832C81C8
:1007C0003D81232B59F7FC011082E8CF80E0E7CF71
:1007D000EF92FF920F931F93CF93DF9361157105F3
:1007E00041F480E0DF91CF911F910F91FF90EF9046
:1007F000089541155105B1F07B01EC010C811D817B
:10080000040F151FB8010E94C003882351F32881EB
:1008100039818C819D81B701820F931F0E94550DF4
:100820001D830C8381E0DECFCF93DF93EC018881C1
:100830009981009711F00E94FD0B198218821D8288
:100840001C821B821A82DF91CF910895EF92FF9252
:100850000F931F93CF93DF93EC017B018A01BA01C1
:100860000E94C00381110BC0CE010E941404CE016E
:10087000DF91CF911F910F91FF90EF9008951D830D
:100880000C83B701888199810E94550DF0CFCF93D9
:10089000DF93EC01FB018617970749F060817181B6
:1008A0006115710541F0448155810E942604CE01F5
:1008B000DF91CF9108950E941404F9CFFC011182B9
:1008C00010821382128215821482FB010190002093
:1008D000E9F73197AF01461B570B0C942604CF92D2
:1008E000DF92EF92FF920F931F93CF93DF93EC0170
:1008F0006B017A011A821B821C821D828C01065FA9
:100900001F4F68E271E0C8010E945E04D982C8826C
:1009100088EB9BE0A0E0B0E08E839F83A887B98737
:10092000B701C801DF91CF911F910F91FF90EF9018
:10093000DF90CF900C944704EF92FF920F931F9398
:10094000CF93DF9300D0CDB7DEB78C01E62E68E2FF
:1009500071E00E945E040E94DF010E2C000CFF0873
:1009600097FD10C08E159F0569F089831A8241E0BA
:1009700050E0BE016F5F7F4FC8010E94E8030E94F4
:10098000DF01EECFC8010F900F90DF91CF911F9143
:100990000F91FF90EF900895FC0180819181009765
:1009A00011F00C94FD0B0895DF92EF92FF920F93DC
:1009B0001F93CF93DF93CDB7DEB728970FB6F89488
:1009C000DEBF0FBECDBF8B01FC01D18080811A82BA
:1009D00019821C821B821E821D828F8318867E01D3
:1009E000F7E0EF0EF11CF70101900020E9F73197D5
:1009F000AF014E195F09B701CE0101960E9426048E
:100A0000F8014481558160817181CE0101960E9477
:100A1000E803811104C0CE0101960E941404DF8214
:100A2000188641E050E0B701CE0101960E94E8032C
:100A3000811104C0CE0101960E941404BE016F5FB3
:100A40007F4FC8010E944704CE0101960E94CC044A
:100A5000F801448155816081718181E491E00E94B7
:100A60008F0142E050E066E271E081E491E00E9493
:100A70008F0128960FB6F894DEBF0FBECDBFDF9171
:100A8000CF911F910F91FF90EF90DF9008951F92EB
:100A90000F920FB60F9211242F933F938F939F9332
:100AA000AF93BF938091390190913A01A0913B019E
:100AB000B0913C013091380123E0230F2D3758F5D8
:100AC0000196A11DB11D20933801809339019093A7
:100AD0003A01A0933B01B0933C0180913D0190917C
:100AE0003E01A0913F01B09140010196A11DB11DB1
:100AF00080933D0190933E01A0933F01B09340014C
:100B0000BF91AF919F918F913F912F910F900FBE09
:100B10000F901F90189526E8230F0296A11DB11D76
:100B2000D2CF1F920F920FB60F9211242F933F93A3
:100B30004F935F936F937F938F939F93AF93BF93E5
:100B4000EF93FF9381E491E00E943F02FF91EF91C8
:100B5000BF91AF919F918F917F916F915F914F91D5
:100B60003F912F910F900FBE0F901F9018951F92DD
:100B70000F920FB60F9211242F938F939F93EF93A1
:100B8000FF93E0915101F09152018081E091570172
:100B9000F091580182FD1BC0908180915A018F5FB6
:100BA0008F7320915B01821741F0E0915A01F0E0D0
:100BB000EF5BFE4F958F80935A01FF91EF919F91CC
:100BC0008F912F910F900FBE0F901F9018958081DD
:100BD000F4CFCF93DF9300D000D000D0CDB7DEB7F5
:100BE000109244011092430188EE93E0A0E0B0E03F
:100BF0008093450190934601A0934701B09348012B
:100C000088E191E0909342018093410185EC90E06E
:100C100090934E0180934D0184EC90E090935001AD
:100C200080934F0180EC90E09093520180935101AA
:100C300081EC90E0909354018093530182EC90E01A
:100C4000909356018093550186EC90E09093580163
:100C50008093570110925A0110925B0110925C012F
:100C600010925D0193E29093350285E28093360203
:100C70009093330280933402E0E0F1E0AEE1B2E021
:100C8000819191918D939D9381E0EE30F807C1F7AA
:100C90008EE090E090931702809316028FE090E030
:100CA000909319028093180284E690E090931B02BF
:100CB00080931A0283E280931C0285E280931D02D6
:100CC00069E271E0CE0101960E945E04AE014F5FC1
:100CD0005F4F6BE070E086E092E00E946F04CE010F
:100CE00001960E94CC046BE271E0CE0101960E9455
:100CF0005E04AE014F5F5F4F61E170E086EF91E00F
:100D00000E946F04CE0101960E94CC046DE271E056
:100D1000CE0101960E945E04AE014F5F5F4F63E11A
:100D200070E086EE91E00E946F04CE0101960E9471
:100D3000CC04909135028091360220E130E030936E
:100D4000DF012093DE0123E030E03093E1012093C6
:100D5000E00121E430E03093E3012093E20190933D
:100D6000E4018093E50126960FB6F894DEBF0FBE2E
:100D7000CDBFDF91CF910895CF93DF93CDB7DEB78D
:100D80006E970FB6F894DEBF0FBECDBF789484B5D2
:100D9000826084BD84B5816084BD85B5826085BD77
:100DA00085B5816085BD80916E00816080936E0005
:100DB00010928100809181008260809381008091F7
:100DC00081008160809381008091800081608093A8
:100DD00080008091B10084608093B1008091B00068
:100DE00081608093B00080917A00846080937A0063
:100DF00080917A00826080937A0080917A0081608D
:100E000080937A0080917A00806880937A001092B3
:100E1000C100E0915101F091520182E08083E091A4
:100E20004D01F0914E011082E0914F01F09150017F
:100E30008FEC808310925901E0915501F091560199
:100E400086E08083E0915301F091540180818061BC
:100E50008083E0915301F091540180818860808308
:100E6000E0915301F0915401808180688083E0918A
:100E70005301F091540180818F7D808361E08CE08B
:100E80000E940D0161E08DE00E940D0161E082E1B0
:100E90000E940D0161E08CE00E94DF0060E08DE0C7
:100EA0000E94DF0060E082E10E94DF0060E080E1FC
:100EB0000E940D012CE2E22E22E0F22E67010EE1EB
:100EC00012E0F80180810E5F1F4F62E00E940D0169
:100ED000F70111927F01C016D10699F760E0809169
:100EE00016020E940D0160E0809118020E940D011F
:100EF00061E0809106020E940D0160E0809106028F
:100F00000E94DF0060E08091DE010E940D018E01F1
:100F10000F5F1F4F81E491E00E941F02892B09F4AB
:100F200030C160913502C8010E949C04C8010E9432
:100F3000CC0460913602CE0149960E949C049EE149
:100F4000292E92E0392E6101F12CE12CF6018081ED
:100F5000F2E0CF0ED11C0E94B600892B09F018C117
:100F6000F1018685811114C11C8A1B8A1E8A1D8A83
:100F7000188E1F8A4AE0B801C7010E94DF08F801F5
:100F800001900020E9F73197AF01401B510BB801E8
:100F9000CE0143960E942604BE016D5E7F4F83E31F
:100FA00092E00E94D404CE0143960E94CC0421E03A
:100FB000F10126870E945E014B015C018AE0482E08
:100FC000512C612C712C0E945E01681979098A09E3
:100FD0009B09683E734081059105A8F381E0481A9A
:100FE00051086108710898EE890E93E0991EA11CC2
:100FF000B11C411451046104710429F7FFEFEF1A89
:10100000FF0A2FEF221A320A87E0E816F10409F0EE
:101010009DCF809116020E944901895591406C0133
:10102000809118020E944901875491407C0180916F
:101030001A0290911B026FE271E08C159D0544F03D
:10104000919581959109C816D9066CF461E371E018
:10105000C8010E945E04B8018CE192E00E94D404B1
:10106000C8010E94CC0480911A0290911B0263E394
:1010700071E08E159F0544F0919581959109E816D0
:10108000F9066CF465E371E0C8010E945E04B801E2
:101090008CE192E00E94D404C8010E94CC041A8220
:1010A00019821C821B821E821D8260E172E0C801CF
:1010B0000E944704BE01675E7F4FC8010E949003F3
:1010C000F82EC8010E94CC04FF2021F086E092E0B7
:1010D0000E9480031A8219821C821B821E821D823A
:1010E00060E072E0C8010E944704BE01675E7F4F66
:1010F000C8010E949003F82EC8010E94CC04FF2072
:1011000021F086EF91E00E9480031A8219821C82EE
:101110001B821E821D8260EF71E0C8010E9447049D
:10112000BE01675E7F4FC8010E949003F82EC80180
:101130000E94CC04FF2021F086EE91E00E94800303
:1011400086E092E00E94CE0286EF91E00E94CE02FD
:1011500086EE91E00E94CE0283E290E00197F1F7E3
:10116000CE0149960E94CC04E0E0F0E0EF2B09F4B8
:10117000D1CE0E942B02882309F4CCCE0E9400001D
:10118000C9CE68E271E0CE0149960E945E04D7CED6
:10119000F601329780810E94B600019709F02ECFA8
:1011A000F10116862BCF80EF91E00E94CC0480E005
:1011B00092E00E94CC0480E192E00C94CC04BB2726
:1011C0004A3031F4992322F4BDE2909581959F4FE6
:1011D0000C94EB08BB27FB015527AA27880F991F02
:1011E000AA1FA41710F0A41B83955051B9F7A05D56
:1011F000AA3308F0A95DA193009779F7B111B193D3
:101200001192CB010C940409DC01FC01672F719150
:101210007723E1F7329704C07C916D9370836291DC
:10122000AE17BF07C8F30895E89409C097FB3EF4D2
:1012300090958095709561957F4F8F4F9F4F992323
:10124000A9F0F92F96E9BB279395F69587957795A1
:101250006795B795F111F8CFFAF4BB0F11F460FF61
:101260001BC06F5F7F4F8F4F9F4F16C0882311F0B9
:1012700096E911C0772321F09EE8872F762F05C0CD
:10128000662371F096E8862F70E060E02AF09A9568
:10129000660F771F881FDAF7880F9695879597F95D
:1012A00008950E9464090C94D5090E94C70938F07A
:1012B0000E94CE0920F0952311F00C94BE090C94E5
:1012C000C40911240C94090A0E94E60970F3959F41
:1012D000C1F3950F50E0551F629FF001729FBB272D
:1012E000F00DB11D639FAA27F00DB11DAA1F649FC9
:1012F0006627B00DA11D661F829F2227B00DA11D7C
:10130000621F739FB00DA11D621F839FA00D611D01
:10131000221F749F3327A00D611D231F849F600D22
:10132000211D822F762F6A2F11249F5750409AF04B
:10133000F1F088234AF0EE0FFF1FBB1F661F771FD7
:10134000881F91505040A9F79E3F510580F00C94A2
:10135000BE090C94090A5F3FE4F3983ED4F38695E6
:1013600077956795B795F795E7959F5FC1F7FE2B42
:10137000880F911D9695879597F9089597F99F671E
:1013800080E870E060E008959FEF80EC089500240D
:101390000A941616170618060906089500240A94DA
:1013A00012161306140605060895092E0394000C60
:1013B00011F4882352F0BB0F40F4BF2B11F460FFEF
:1013C00004C06F5F7F4F8F4F9F4F089557FD905818
:1013D000440F551F59F05F3F71F04795880F97FBF9
:1013E000991F61F09F3F79F08795089512161306B3
:1013F0001406551FF2CF4695F1DF08C016161706E2
:101400001806991FF1CF8695710561050894089516
:10141000E894BB2766277727CB0197F908952F9289
:101420003F924F925F926F927F928F929F92AF9274
:10143000BF92CF92DF92EF92FF920F931F93CF93C1
:10144000DF93CDB7DEB7CA1BDB0B0FB6F894DEBF58
:101450000FBECDBF09942A88398848885F846E847E
:101460007D848C849B84AA84B984C884DF80EE80C8
:10147000FD800C811B81AA81B981CE0FD11D0FB6D1
:10148000F894DEBF0FBECDBFED010895EE0FFF1F34
:101490000590F491E02D09945058BB27AA270E948B
:1014A000640A0C94D5090E94C70938F00E94CE093D
:1014B00020F039F49F3F19F426F40C94C4090EF47B
:1014C000E095E7FB0C94BE09E92F0E94E60958F36A
:1014D000BA17620773078407950720F079F4A6F519
:1014E0000C94080A0EF4E0950B2EBA2FA02D0B01D8
:1014F000B90190010C01CA01A0011124FF27591B59
:1015000099F0593F50F4503E68F11A16F040A22F5E
:10151000232F342F4427585FF3CF469537952795CF
:10152000A795F0405395C9F77EF41F16BA0B620BCE
:10153000730B840BBAF09150A1F0FF0FBB1F661F15
:10154000771F881FC2F70EC0BA0F621F731F841F58
:1015500048F4879577956795B795F7959E3F08F07E
:10156000B0CF9395880F08F09927EE0F9795879540
:1015700008950E94CD0A0C94D5090E94CE0958F016
:101580000E94C70940F029F45F3F29F00C94BE097E
:1015900051110C94090A0C94C4090E94E60968F3DD
:1015A0009923B1F3552391F3951B550BBB27AA271C
:1015B00062177307840738F09F5F5F4F220F331F56
:1015C000441FAA1FA9F335D00E2E3AF0E0E832D01E
:1015D00091505040E695001CCAF72BD0FE2F29D021
:1015E000660F771F881FBB1F261737074807AB07F3
:1015F000B0E809F0BB0B802DBF01FF2793585F4F68
:101600003AF09E3F510578F00C94BE090C94090AFB
:101610005F3FE4F3983ED4F3869577956795B79549
:10162000F7959F5FC9F7880F911D9695879597F954
:101630000895E1E0660F771F881FBB1F62177307CD
:101640008407BA0720F0621B730B840BBA0BEE1FE2
:1016500088F7E09508950E94320B6894B1110C94BC
:10166000090A08950E94EE0988F09F5798F0B92F53
:101670009927B751B0F0E1F0660F771F881F991FC7
:101680001AF0BA95C9F714C0B13091F00E94080A57
:10169000B1E008950C94080A672F782F8827B85F67
:1016A00039F0B93FCCF3869577956795B395D9F71F
:1016B0003EF490958095709561957F4F8F4F9F4F29
:1016C00008950F931F93CF93DF938230910510F409
:1016D00082E090E0E0913902F0913A0230E020E0BF
:1016E000B0E0A0E0309799F42115310509F44AC023
:1016F000281B390B24303105D8F58A819B8161156F
:10170000710589F1FB0193838283FE0111C0408141
:1017100051810281138148175907E0F04817590792
:1017200099F4109761F012960C93129713961C93EC
:101730003296CF01DF91CF911F910F9108950093C1
:10174000390210933A02F4CF2115310551F04217B6
:10175000530738F0A901DB019A01BD01DF01F8014F
:10176000C1CFEF01F9CF90933A0280933902CDCFE8
:10177000FE01E20FF31F81939193225031093983C7
:101780002883D7CF2091370230913802232B41F4A0
:1017900020911001309111013093380220933702CB
:1017A00020910E0130910F012115310541F42DB723
:1017B0003EB74091120150911301241B350BE0916B
:1017C0003702F0913802E217F307A0F42E1B3F0B0B
:1017D0002817390778F0AC014E5F5F4F24173507A3
:1017E00048F04E0F5F1F50933802409337028193A9
:1017F00091939FCFF0E0E0E09CCFCF93DF930097F1
:10180000E9F0FC01329713821282A0913902B09163
:101810003A02ED0130E020E01097A1F420813181FF
:10182000820F931F20913702309138022817390711
:1018300009F061C0F0933802E0933702DF91CF9155
:101840000895EA01CE17DF07E8F54A815B819E0122
:1018500041155105B1F7E901FB83EA83499159919B
:10186000C40FD51FEC17FD0761F4808191810296AA
:10187000840F951FE90199838883828193819B83DB
:101880008A83F0E0E0E012968D919C911397009787
:10189000B9F52D913C911197CD010296820F931FBE
:1018A00020913702309138022817390739F63097DE
:1018B00051F510923A0210923902B0933802A09377
:1018C0003702BCCFD383C28340815181840F951FDF
:1018D000C817D90761F44E5F5F4F88819981480F1F
:1018E000591F518340838A819B8193838283211571
:1018F000310509F0B0CFF0933A02E09339029ECF60
:10190000FD01DC01C0CF13821282D7CFB0E0A0E08E
:10191000ECE8FCE00C94110A8C01009751F4CB0127
:101920000E94610B8C01C801CDB7DEB7E0E10C94D9
:101930002D0AFC01E60FF71F9C0122503109E21726
:10194000F30708F49DC0D901CD91DC911197C6171A
:10195000D70798F0C530D10530F3CE01049786172C
:10196000970708F3C61BD70B2297C193D1936D93AA
:101970007C93CF010E94FD0BD6CF5B01AC1ABD0A50
:101980004C018C0E9D1EA0913902B0913A02512C4F
:10199000412CF12CE12C109731F580913702909178
:1019A00038028815990509F05CC04616570608F0FC
:1019B00058C080910E0190910F01009741F48DB7AE
:1019C0009EB74091120150911301841B950BE817AB
:1019D000F90708F055C0F0933802E0933702F90197
:1019E00071836083A0CF8D919C91119712966C901A
:1019F000129713967C901397A815B90559F56C01A9
:101A000042E0C40ED11CCA14DB0420F1AC014A1917
:101A10005B09DA011296159780F062827382518316
:101A20004083D9016D937C93E114F10471F0D701E7
:101A30001396FC93EE93129776CF22968C0F9D1FF0
:101A4000F90191838083F301EFCFF0933A02E093A1
:101A5000390269CF4816590608F42C017D01D301DB
:101A60009ACFCB010E94610B7C01009749F0AE0137
:101A7000B8010E94430DC8010E94FD0B870153CF9E
:101A800010E000E050CFFB01DC0102C001900D929C
:101A900041505040D8F70895FB01DC018D91019031
:101AA00080190110D9F3990B0895FB01DC01019015
:101AB0000D920020E1F7089510E0C2E6D0E004C0E6
:101AC000FE010E94460A2196C336D107C9F7F89451
:021AD000FFCF46
:101AD20002000300040005000600070008000000E1
:101AE2003B0280000000000061028F01BC01AE02D7
:101AF2001F02CB0111020D0A005400590057005277
:081B0200004C005500440000F6
:00000001FF
