:100000000C9463000C948B000C948B000C948B006C
:100010000C948B000C948B000C948B000C948B0034
:100020000C948B000C948B000C948B000C948B0024
:100030000C948B000C948B000C948B000C948B0014
:100040000C9493050C948B000C9403060C94DD0522
:100050000C948B000C948B000C948B000C948B00F4
:100060000C948B000C948B000000000024002700EF
:100070002A0000000000250028002B0000000000DE
:1000800023002600290004040404040404040202DA
:100090000202020203030303030301020408102007
:1000A0004080010204081020010204081020000012
:1000B0000008000201000003040700000000000027
:1000C00000003506460911241FBECFEFD8E0DEBF81
:1000D000CDBF11E0A0E0B1E0E8EBFBE102C005908C
:1000E0000D92AA33B107D9F722E0AAE3B1E001C02B
:1000F0001D92AD33B207E1F710E0C2E6D0E004C0D4
:100100002197FE010E94B90AC136D107C9F70E94A2
:1001100008070C94CF0D0C940000DC0114962D916F
:100120003C911597232B41F0ED91FC9181E090815A
:10013000992319F080E0089581E00895833081F0DB
:1001400028F4813099F08230A9F008958730A9F021
:100150008830C9F08430B1F4809180008F7D03C075
:10016000809180008F7780938000089584B58F7789
:1001700084BD089584B58F7DFBCF8091B0008F77CB
:100180008093B00008958091B0008F7DF9CFCF9318
:10019000DF93282F30E0F901E255FF4F8491F901F8
:1001A000E656FF4FD491F901EA57FF4FC491CC2393
:1001B000A1F081110E949E00EC2FF0E0EE0FFF1FD6
:1001C000E458FF4FA591B491EC91ED2381E090E0CC
:1001D00009F480E0DF91CF91089580E090E0FACFBC
:1001E0001F93CF93DF93282F30E0F901E255FF4FA3
:1001F0008491F901E656FF4FD491F901EA57FF4F78
:10020000C491CC23A9F0162F81110E949E00EC2FDF
:10021000F0E0EE0FFF1FEE58FF4FA591B4918FB79E
:10022000F894EC91111108C0D095DE23DC938FBFB8
:10023000DF91CF911F910895DE2BF8CFCF93DF93FD
:1002400090E0FC01E656FF4F24918A579F4FFC0136
:1002500084918823C9F090E0880F991FFC01E85928
:10026000FF4FA591B491FC01EE58FF4FC591D49179
:1002700061110DC09FB7F8948C91209582238C93C7
:100280008881282328839FBFDF91CF910895623012
:1002900051F49FB7F8943C91822F809583238C93DF
:1002A000E8812E2BEFCF8FB7F894EC912E2B2C9367
:1002B0008FBFEACF8E3008F08E50877080648093B5
:1002C0007C0080917A00806480937A0080917A002B
:1002D00086FDFCCF80917800909179000895CF93AE
:1002E000DF93809118020E945A01EC01C955D14058
:1002F00080911A020E945A0120911C0230911D0225
:1003000044275527421B530BC417D50784F02C17DD
:100310003D0784F0875491402817390774F08417FB
:10032000950774F090E080E0DF91CF91089581E02F
:1003300090E0FACF82E090E0F7CF83E090E0F4CF56
:1003400084E090E0F1CF3FB7F89480913F01909125
:100350004001A0914101B091420126B5A89B05C082
:100360002F3F19F00196A11DB11D3FBFBA2FA92F34
:10037000982F8827BC01CD01620F711D811D911D31
:1003800042E0660F771F881F991F4A95D1F708959D
:100390002FB7F89460913B0170913C0180913D0131
:1003A00090913E012FBF0895AF92BF92CF92DF92FE
:1003B000EF92FF920F931F93CF93DF936C017B011A
:1003C0008B01040F151FEB015E01AE18BF08C017AB
:1003D000D10759F06991D601ED91FC910190F0811E
:1003E000E02DC6010995892B79F7C501DF91CF91E1
:1003F0001F910F91FF90EF90DF90CF90BF90AF9043
:100400000895FC01538D448D252F30E0842F90E01A
:10041000821B930B541710F0CF96089501970895FF
:10042000FC01918D828D981761F0A28DAE0FBF2FC8
:10043000B11D5D968C91928D9F5F9F73928F90E01E
:1004400008958FEF9FEF08950F931F930E94C801A7
:1004500060934B0170934C0180934D0190934E013A
:1004600083E491E00E94100297FF1DC00E94C80122
:1004700000914B0110914C0120914D0130914E01A2
:10048000601B710B820B930B009147011091480187
:100490002091490130914A01601771078207930743
:1004A000F8F28FEF9FEF1F910F910895FC01918D4E
:1004B000828D981731F0828DE80FF11D858D90E0C7
:1004C00008958FEF9FEF0895FC01918D228D892F64
:1004D00090E0805C9F4F821B91098F73992708954C
:1004E00083E491E00E94640221E0892B09F420E07A
:1004F000822F089580E090E0892B29F00E947002FD
:1005000081110C9400000895FC01A48DA80FB92F4F
:10051000B11DA35ABF4F2C91848D90E001968F732B
:100520009927848FA689B7892C93A089B1898C914A
:10053000837080648C93938D848D981306C0028899
:10054000F389E02D80818F7D80830895EF92FF9263
:100550000F931F93CF93DF93EC0181E0888F9B8DE6
:100560008C8D98131AC0E889F989808185FF15C0A0
:100570009FB7F894EE89FF896083E889F9898081C3
:100580008370806480839FBF81E090E0DF91CF9192
:100590001F910F91FF90EF900895F62E0B8D10E0B4
:1005A0000F5F1F4F0F731127E02E8C8D8E110CC023
:1005B0000FB607FCFACFE889F989808185FFF5CF6E
:1005C000CE010E948402F1CFEB8DEC0FFD2FF11DC7
:1005D000E35AFF4FF0829FB7F8940B8FEA89FB89AB
:1005E00080818062CFCFCF93DF93EC01888D882309
:1005F000B9F0AA89BB89E889F9898C9185FD03C086
:10060000808186FD0DC00FB607FCF7CF8C9185FF6A
:10061000F2CF808185FFEDCFCE010E948402E9CF29
:10062000DF91CF910895CF92DF92EF92FF920F93D7
:100630001F93CF93DF93EC010E94C8010A811B81B5
:100640002C813D81601B710B820B930B0E811F81EE
:1006500028853985061717072807390760F460E0F1
:100660008881DF91CF911F910F91FF90EF90DF90E4
:10067000CF900C94F0000E94C8010A811B812C814C
:100680003D81601B710B820B930B0E9487096B01EC
:100690007C016E817F81888599850E9487099B01F5
:1006A000AC01C701B6010E942C0B9B01AC0160E0BC
:1006B00070E080E89FE30E94BF0A20E030E04FE74F
:1006C00053E40E94C4090E949E0B6B018B010990A8
:1006D000D881C02D61E08C2F0E941E01C114D1046D
:1006E00019F460E08C2FBDCF0F3F110511F461E0CC
:1006F000F9CFFE01FF27E255FF4FE491E33059F1B6
:1007000040F4E130B1F0E23009F1003811057CF736
:10071000E8CFE73051F1E83081F1E430B1F7809172
:100720008000806280938000D0928B00C0928A000B
:1007300004C084B5806884BDC7BCDF91CF911F9190
:100740000F91FF90EF90DF90CF90089584B5806275
:1007500084BDC8BCF2CF8091800080688093800007
:10076000D0928900C0928800E8CF8091B000806864
:100770008093B000C092B300E0CF8091B00080625F
:100780008093B000C092B400D8CFCF93DF93EC0138
:1007900061E088810E94F0000E94C8016A837B8327
:1007A0008C839D83DF91CF910895FC012481358155
:1007B000FB014481558124173507E1F4FC01808158
:1007C0009181FB01608171810097D1F06115710504
:1007D000A1F4232BC1F0FC01808190E008C0232B01
:1007E00091F0FB01808190E091958195910921E044
:1007F000892B09F020E0822F08950E94BF0DF7CFCA
:100800006115710561F721E0F6CF0F931F93CF9328
:10081000DF93EC0188819981009759F02A813B810F
:100820002617370730F081E0DF91CF911F910F91AC
:1008300008958B016F5F7F4F0E94F90C009759F06C
:10084000998388831B830A832C813D81232B59F74D
:10085000FC011082E8CF80E0E7CFEF92FF920F9388
:100860001F93CF93DF936115710541F480E0DF9111
:10087000CF911F910F91FF90EF9008954115510571
:10088000B1F07B01EC010C811D81040F151FB80133
:100890000E940504882351F3288139818C819D8130
:1008A000B701820F931F0E94C80D1D830C8381E046
:1008B000DECFCF93DF93EC0188819981009711F00F
:1008C0000E94700C198218821D821C821B821A825F
:1008D000DF91CF910895EF92FF920F931F93CF93E3
:1008E000DF93EC017B018A01BA010E9405048111AA
:1008F0000BC0CE010E945904CE01DF91CF911F9110
:100900000F91FF90EF9008951D830C83B7018881AC
:1009100099810E94C80DF0CFFB0101900020E9F7FA
:100920003197AF01461B570B0C946B04CF93DF93A9
:10093000EC01FB018617970749F060817181611511
:10094000710541F0448155810E946B04CE01DF9115
:10095000CF9108950E945904F9CFFC0111821082B1
:1009600013821282158214820C949604FC01118267
:1009700010821382128215821482FB0101900020E2
:10098000E9F73197AF01461B570B0C946B04CF92DC
:10099000DF92EF92FF920F931F93CF93DF93EC01BF
:1009A0006B017A011A821B821C821D828C01065FF8
:1009B0001F4F68E271E0C8010E94B604D982C88264
:1009C00088EB9BE0A0E0B0E08E839F83A887B98787
:1009D000B701C801DF91CF911F910F91FF90EF9068
:1009E000DF90CF900C949604EF92FF920F931F9399
:1009F000CF93DF9300D0CDB7DEB78C01E62E68E24F
:100A000071E00E94B6040E9424020E2C000CFF0824
:100A100097FD10C08E159F0569F089831A8241E009
:100A200050E0BE016F5F7F4FC8010E942D040E94FD
:100A30002402EECFC8010F900F90DF91CF911F914C
:100A40000F91FF90EF900895FC01808191810097B4
:100A500011F00C94700C0895FF920F931F93CF9395
:100A6000DF93CDB7DEB728970FB6F894DEBF0FBE81
:100A7000CDBF8B01FC01F18080811A8219821C821A
:100A80001B821E821D828F831886BE01695F7F4F85
:100A9000CE0101960E948C04F80144815581608149
:100AA0007181CE0101960E942D04811104C0CE01F6
:100AB00001960E945904FF82188641E050E0BE0171
:100AC000695F7F4FCE0101960E942D04811104C001
:100AD000CE0101960E945904BE016F5F7F4FC8018D
:100AE0000E949604CE0101960E942405F8014481DB
:100AF00055816081718183E491E00E94D40142E0DC
:100B000050E066E271E083E491E00E94D40128960F
:100B10000FB6F894DEBF0FBECDBFDF91CF911F910E
:100B20000F91FF9008951F920F920FB60F9211240C
:100B30002F933F938F939F93AF93BF9380913B01EC
:100B400090913C01A0913D01B0913E0130913A015C
:100B500023E0230F2D3758F50196A11DB11D2093D9
:100B60003A0180933B0190933C01A0933D01B093E7
:100B70003E0180913F0190914001A0914101B091CF
:100B800042010196A11DB11D80933F019093400148
:100B9000A0934101B0934201BF91AF919F918F917A
:100BA0003F912F910F900FBE0F901F90189526E840
:100BB000230F0296A11DB11DD2CF1F920F920FB627
:100BC0000F9211242F933F934F935F936F937F93D3
:100BD0008F939F93AF93BF93EF93FF9383E491E041
:100BE0000E948402FF91EF91BF91AF919F918F91ED
:100BF0007F916F915F914F913F912F910F900FBE19
:100C00000F901F9018951F920F920FB60F921124FC
:100C10002F938F939F93EF93FF93E0915301F09164
:100C200054018081E0915901F0915A0182FD1BC06D
:100C3000908180915C018F5F8F7320915D0182179D
:100C400041F0E0915C01F0E0ED5BFE4F958F809309
:100C50005C01FF91EF919F918F912F910F900FBEAB
:100C60000F901F9018958081F4CFCF93DF9300D021
:100C700000D000D0CDB7DEB71092460110924501EA
:100C800088EE93E0A0E0B0E08093470190934801A4
:100C9000A0934901B0934A0188E191E09093440107
:100CA0008093430185EC90E09093500180934F0135
:100CB00084EC90E0909352018093510180EC90E09D
:100CC000909354018093530181EC90E090935601EE
:100CD0008093550182EC90E09093580180935701E6
:100CE00086EC90E090935A018093590110925C0138
:100CF00010925D0110925E0110925F0193E2909359
:100D0000370285E280933802909335028093360251
:100D1000E0E0F1E0A0E2B2E0819191918D939D93AA
:100D200081E0EE30F807C1F78EE090E09093190271
:100D3000809318028FE090E090931B0280931A0238
:100D400084E690E090931D0280931C0283E28093DE
:100D50001E0285E280931F0269E271E0CE010196D6
:100D60000E94B604AE014F5F5F4F6BE070E088E019
:100D700092E00E94C704CE0101960E9424056BE216
:100D800071E0CE0101960E94B604AE014F5F5F4F45
:100D900061E170E088EF91E00E94C704CE01019606
:100DA0000E9424056DE271E0CE0101960E94B60416
:100DB000AE014F5F5F4F63E170E088EE91E00E940B
:100DC000C704CE0101960E942405909137028091BC
:100DD000380220E130E03093E1012093E00123E08C
:100DE00030E03093E3012093E20121E430E03093DE
:100DF000E5012093E4019093E6018093E7012696B4
:100E00000FB6F894DEBF0FBECDBFDF91CF9108952E
:100E1000CF93DF93CDB7DEB76E970FB6F894DEBFF2
:100E20000FBECDBF789484B5826084BD84B58160E7
:100E300084BD85B5826085BD85B5816085BD8091A5
:100E40006E00816080936E0010928100809181001D
:100E50008260809381008091810081608093810015
:100E6000809180008160809380008091B1008460D7
:100E70008093B1008091B00081608093B000809138
:100E80007A00846080937A0080917A0082608093F7
:100E90007A0080917A00816080937A0080917A0054
:100EA000806880937A001092C100E0915301F09124
:100EB000540182E08083E0914F01F0915001108253
:100EC000E0915101F09152018FEC808310925B010F
:100ED000E0915701F091580186E08083E09155013F
:100EE000F0915601808180618083E0915501F091FD
:100EF0005601808188608083E0915501F091560110
:100F0000808180688083E0915501F0915601808155
:100F10008F7D808361E08CE00E941E0161E08DE0A6
:100F20000E941E0161E082E10E941E0161E08CE0EE
:100F30000E94F00060E08DE00E94F00060E082E13D
:100F40000E94F00060E080E10E941E012EE2E22E8D
:100F500022E0F22E670100E212E0F80180810E5FCC
:100F60001F4F62E00E941E01F70111927F01C0161F
:100F7000D10699F760E0809118020E941E0160E09E
:100F800080911A020E941E0161E0809108020E9475
:100F90001E0160E0809108020E94F00060E08091F4
:100FA000E0010E941E0190E0292E90E0392E83E49A
:100FB00091E00E946402892B09F428C160913702F4
:100FC000CE0101960E94F404CE0101960E942405F0
:100FD00060913802CE0149960E94F40400E212E0CA
:100FE0006801F12CE12CF6018081F2E0CF0ED11CDA
:100FF0000E94C700892B09F010C1F8018685811174
:101000000CC11C8A1B8A1E8A1D8A188E1F8A4AE000
:10101000BE016F5F7F4FC7010E945209BE016F5F23
:101020007F4FCE0143960E948C04BE016D5E7F4FC0
:1010300085E392E00E942C05CE0143960E94240590
:1010400021E0F80126870E94A3012B013C018AE0E0
:10105000882E912CA12CB12C0E94A3016419750932
:1010600086099709683E734081059105A8F381E0E0
:10107000881A9108A108B10898EE490E93E0591E0C
:10108000611C711C81149104A104B10429F7FFEFC4
:10109000EF1AFF0A0F5F1F4F27E0E216F10409F075
:1010A000A2CF0E946F010E946F018C0168E271E083
:1010B000CE0143960E94B6046FE271E00130110543
:1010C00029F00230110531F461E371E0CE0143965D
:1010D0000E948C04CE0143960E948D00811118C09D
:1010E000BE016D5E7F4FCE0101960E94AD04BE0130
:1010F0006F5F7F4F87E392E00E942C05CE0101963F
:101100000E94240568E271E0CE0143960E948C049F
:1011100068E271E0CE0143960E948C0463E371E0C3
:101120000330110529F00430110531F465E371E055
:10113000CE0143960E948C04CE0143960E948D00FE
:10114000811112C0BE016D5E7F4FCE0101960E94DB
:10115000AD04BE016F5F7F4F87E392E00E942C05D4
:10116000CE0101960E94240562E172E0CE01019653
:101170000E94AD04BE01675E7F4FCE0101960E94C2
:10118000D503182FCE0101960E94240588E092E035
:10119000111116C062E072E0CE0101960E94AD040A
:1011A000BE01675E7F4FCE0101960E94D503182FC6
:1011B000CE0101960E9424051123D1F188EF91E020
:1011C0000E94C50388E092E00E94130388EF91E03B
:1011D0000E94130388EE91E00E94130383E290E0E3
:1011E0000197F1F7CE0143960E942405CE0149965E
:1011F0000E9424052114310409F4D9CE0E94700202
:10120000882309F4D4CE0E940000D1CE68E271E0B8
:10121000CE0149960E94B604E1CEF6013297808154
:101220000E94C700019709F032CFF80116862FCF30
:1012300062EF71E0CE0101960E94AD04BE01675ECF
:101240007F4FCE0101960E94D503182FCE01019643
:101250000E94240588EE91E01111B2CFCE0149968B
:101260000E948D008111AECF67E371E0CE0101963F
:101270000E94B604BE016F5F7F4F87E392E00E9439
:101280002C05CE0101960E9424059CCF82EF91E0AF
:101290000E94240582E092E00E94240582E192E00F
:1012A0000C942405BB274A3031F4992322F4BDE283
:1012B000909581959F4F0C945E09BB27FB015527A4
:1012C000AA27880F991FAA1FA41710F0A41B8395A3
:1012D0005051B9F7A05DAA3308F0A95DA19300971A
:1012E00079F7B111B1931192CB010C947709DC011C
:1012F000FC01672F71917723E1F7329704C07C914D
:101300006D9370836291AE17BF07C8F30895E89498
:1013100009C097FB3EF490958095709561957F4F3D
:101320008F4F9F4F9923A9F0F92F96E9BB279395EB
:10133000F695879577956795B795F111F8CFFAF4FB
:10134000BB0F11F460FF1BC06F5F7F4F8F4F9F4F2C
:1013500016C0882311F096E911C0772321F09EE88A
:10136000872F762F05C0662371F096E8862F70E0F0
:1013700060E02AF09A95660F771F881FDAF7880FCA
:101380009695879597F908950E94D7090C94480A75
:101390000E943A0A38F00E94410A20F0952311F089
:1013A0000C94310A0C94370A11240C947C0A0E9484
:1013B000590A70F3959FC1F3950F50E0551F629F36
:1013C000F001729FBB27F00DB11D639FAA27F00D9E
:1013D000B11DAA1F649F6627B00DA11D661F829FC5
:1013E0002227B00DA11D621F739FB00DA11D621FAA
:1013F000839FA00D611D221F749F3327A00D611DC7
:10140000231F849F600D211D822F762F6A2F1124A8
:101410009F5750409AF0F1F088234AF0EE0FFF1FDB
:10142000BB1F661F771F881F91505040A9F79E3F32
:10143000510580F00C94310A0C947C0A5F3FE4F370
:10144000983ED4F3869577956795B795F795E79588
:101450009F5FC1F7FE2B880F911D9695879597F991
:10146000089597F99F6780E870E060E008959FEF26
:1014700080EC089500240A9416161706180609062B
:10148000089500240A9412161306140605060895FA
:10149000092E0394000C11F4882352F0BB0F40F482
:1014A000BF2B11F460FF04C06F5F7F4F8F4F9F4FC2
:1014B000089557FD9058440F551F59F05F3F71F044
:1014C0004795880F97FB991F61F09F3F79F08795AB
:1014D0000895121613061406551FF2CF4695F1DF34
:1014E00008C0161617061806991FF1CF86957105C4
:1014F000610508940895E894BB2766277727CB01F8
:1015000097F908952F923F924F925F926F927F9238
:101510008F929F92AF92BF92CF92DF92EF92FF9203
:101520000F931F93CF93DF93CDB7DEB7CA1BDB0BAF
:101530000FB6F894DEBF0FBECDBF09942A88398854
:1015400048885F846E847D848C849B84AA84B9845B
:10155000C884DF80EE80FD800C811B81AA81B98167
:10156000CE0FD11D0FB6F894DEBF0FBECDBFED017B
:101570000895EE0FFF1F0590F491E02D0994505847
:10158000BB27AA270E94D70A0C94480A0E943A0A4D
:1015900038F00E94410A20F039F49F3F19F426F4F4
:1015A0000C94370A0EF4E095E7FB0C94310AE92F0E
:1015B0000E94590A58F3BA17620773078407950700
:1015C00020F079F4A6F50C947B0A0EF4E0950B2E2E
:1015D000BA2FA02D0B01B90190010C01CA01A00185
:1015E0001124FF27591B99F0593F50F4503E68F1E0
:1015F0001A16F040A22F232F342F4427585FF3CF21
:10160000469537952795A795F0405395C9F77EF4F1
:101610001F16BA0B620B730B840BBAF09150A1F03A
:10162000FF0FBB1F661F771F881FC2F70EC0BA0FC0
:10163000621F731F841F48F4879577956795B79548
:10164000F7959E3F08F0B0CF9395880F08F0992743
:10165000EE0F9795879508950E94400B0C94480AC9
:101660000E94410A58F00E943A0A40F029F45F3F74
:1016700029F00C94310A51110C947C0A0C94370A0D
:101680000E94590A68F39923B1F3552391F3951BEE
:10169000550BBB27AA2762177307840738F09F5F93
:1016A0005F4F220F331F441FAA1FA9F335D00E2E00
:1016B0003AF0E0E832D091505040E695001CCAF76D
:1016C0002BD0FE2F29D0660F771F881FBB1F261730
:1016D00037074807AB07B0E809F0BB0B802DBF0107
:1016E000FF2793585F4F3AF09E3F510578F00C94D6
:1016F000310A0C947C0A5F3FE4F3983ED4F386955C
:1017000077956795B795F7959F5FC9F7880F911DF6
:101710009695879597F90895E1E0660F771F881FE2
:10172000BB1F621773078407BA0720F0621B730B95
:10173000840BBA0BEE1F88F7E09508950E94A50B65
:101740006894B1110C947C0A08950E94610A88F093
:101750009F5798F0B92F9927B751B0F0E1F0660F75
:10176000771F881F991F1AF0BA95C9F714C0B130B6
:1017700091F00E947B0AB1E008950C947B0A672FD8
:10178000782F8827B85F39F0B93FCCF386957795E5
:101790006795B395D9F73EF49095809570956195CE
:1017A0007F4F8F4F9F4F08950F931F93CF93DF93DA
:1017B0008230910510F482E090E0E0913B02F091DC
:1017C0003C0230E020E0B0E0A0E0309799F4211531
:1017D000310509F44AC0281B390B24303105D8F5EE
:1017E0008A819B816115710589F1FB019383828355
:1017F000FE0111C0408151810281138148175907B0
:10180000E0F04817590799F4109761F012960C937D
:10181000129713961C933296CF01DF91CF911F91AF
:101820000F91089500933B0210933C02F4CF2115D1
:10183000310551F04217530738F0A901DB019A0135
:10184000BD01DF01F801C1CFEF01F9CF90933C0258
:1018500080933B02CDCFFE01E20FF31F8193919362
:101860002250310939832883D7CF20913902309112
:101870003A02232B41F42091100130911101309351
:101880003A022093390220910E0130910F01211567
:10189000310541F42DB73EB740911201509113012B
:1018A000241B350BE0913902F0913A02E217F3075D
:1018B000A0F42E1B3F0B2817390778F0AC014E5FC0
:1018C0005F4F2417350748F04E0F5F1F50933A02C1
:1018D00040933902819391939FCFF0E0E0E09CCF59
:1018E000CF93DF930097E9F0FC01329713821282C5
:1018F000A0913B02B0913C02ED0130E020E0109756
:10190000A1F420813181820F931F209139023091FF
:101910003A022817390709F061C0F0933A02E093C0
:101920003902DF91CF910895EA01CE17DF07E8F57C
:101930004A815B819E0141155105B1F7E901FB83A5
:10194000EA8349915991C40FD51FEC17FD0761F443
:10195000808191810296840F951FE9019983888384
:10196000828193819B838A83F0E0E0E012968D91DF
:101970009C9113970097B9F52D913C911197CD014A
:101980000296820F931F2091390230913A02281754
:10199000390739F6309751F510923C0210923B020C
:1019A000B0933A02A0933902BCCFD383C283408163
:1019B0005181840F951FC817D90761F44E5F5F4F9F
:1019C00088819981480F591F518340838A819B8167
:1019D000938382832115310509F0B0CFF0933C0247
:1019E000E0933B029ECFFD01DC01C0CF1382128247
:1019F000D7CFB0E0A0E0EFEFFCE00C94840A8C01BC
:101A0000009751F4CB010E94D40B8C01C801CDB7D3
:101A1000DEB7E0E10C94A00AFC01E60FF71F9C0181
:101A200022503109E217F30708F49DC0D901CD9186
:101A3000DC911197C617D70798F0C530D10530F360
:101A4000CE0104978617970708F3C61BD70B22977A
:101A5000C193D1936D937C93CF010E94700CD6CF2C
:101A60005B01AC1ABD0A4C018C0E9D1EA0913B027D
:101A7000B0913C02512C412CF12CE12C109731F506
:101A80008091390290913A028815990509F05CC05D
:101A90004616570608F058C080910E0190910F012C
:101AA000009741F48DB79EB74091120150911301F8
:101AB000841B950BE817F90708F055C0F0933A021C
:101AC000E0933902F90171836083A0CF8D919C91DD
:101AD000119712966C90129713967C901397A815F5
:101AE000B90559F56C0142E0C40ED11CCA14DB04DF
:101AF00020F1AC014A195B09DA011296159780F0C2
:101B00006282738251834083D9016D937C93E11487
:101B1000F10471F0D7011396FC93EE93129776CFF0
:101B200022968C0F9D1FF90191838083F301EFCFE3
:101B3000F0933C02E0933B0269CF4816590608F443
:101B40002C017D01D3019ACFCB010E94D40B7C01E3
:101B5000009749F0AE01B8010E94B60DC8010E947D
:101B6000700C870153CF10E000E050CFFB01DC0187
:101B700002C001900D9241505040D8F70895FB01EA
:101B8000DC018D91019080190110D9F3990B089512
:101B9000FB01DC0101900D920020E1F7089510E0B7
:101BA000C2E6D0E004C0FE010E94B90A2196C33605
:081BB000D107C9F7F894FFCF3B
:101BB80002000300040005000600070008000000FA
:101BC8003D02800000000000A602D4010102F302D9
:101BD8006402100256020D0A005400590057004CC6
:0A1BE80000520055004400450000C3
:00000001FF
